{
  "address": "0xe7f1725E7734CE288F8367e1Bb143E90bb3F0512",
  "abi": [
    {
      "inputs": [
        {
          "internalType": "address",
          "name": "_proxyRegistryAddress",
          "type": "address"
        },
        {
          "internalType": "string",
          "name": "name",
          "type": "string"
        },
        {
          "internalType": "string",
          "name": "symbol",
          "type": "string"
        },
        {
          "internalType": "string",
          "name": "cURI",
          "type": "string"
        },
        {
          "internalType": "string",
          "name": "tokenURI",
          "type": "string"
        }
      ],
      "stateMutability": "nonpayable",
      "type": "constructor"
    },
    {
      "anonymous": false,
      "inputs": [
        {
          "indexed": true,
          "internalType": "address",
          "name": "account",
          "type": "address"
        },
        {
          "indexed": true,
          "internalType": "address",
          "name": "operator",
          "type": "address"
        },
        {
          "indexed": false,
          "internalType": "bool",
          "name": "approved",
          "type": "bool"
        }
      ],
      "name": "ApprovalForAll",
      "type": "event"
    },
    {
      "anonymous": false,
      "inputs": [
        {
          "indexed": false,
          "internalType": "address",
          "name": "userAddress",
          "type": "address"
        },
        {
          "indexed": false,
          "internalType": "address payable",
          "name": "relayerAddress",
          "type": "address"
        },
        {
          "indexed": false,
          "internalType": "bytes",
          "name": "functionSignature",
          "type": "bytes"
        }
      ],
      "name": "MetaTransactionExecuted",
      "type": "event"
    },
    {
      "anonymous": false,
      "inputs": [
        {
          "indexed": true,
          "internalType": "address",
          "name": "previousOwner",
          "type": "address"
        },
        {
          "indexed": true,
          "internalType": "address",
          "name": "newOwner",
          "type": "address"
        }
      ],
      "name": "OwnershipTransferred",
      "type": "event"
    },
    {
      "anonymous": false,
      "inputs": [
        {
          "indexed": false,
          "internalType": "string",
          "name": "_value",
          "type": "string"
        },
        {
          "indexed": true,
          "internalType": "uint256",
          "name": "_id",
          "type": "uint256"
        }
      ],
      "name": "PermanentURI",
      "type": "event"
    },
    {
      "anonymous": false,
      "inputs": [
        {
          "indexed": true,
          "internalType": "address",
          "name": "operator",
          "type": "address"
        },
        {
          "indexed": true,
          "internalType": "address",
          "name": "from",
          "type": "address"
        },
        {
          "indexed": true,
          "internalType": "address",
          "name": "to",
          "type": "address"
        },
        {
          "indexed": false,
          "internalType": "uint256[]",
          "name": "ids",
          "type": "uint256[]"
        },
        {
          "indexed": false,
          "internalType": "uint256[]",
          "name": "values",
          "type": "uint256[]"
        }
      ],
      "name": "TransferBatch",
      "type": "event"
    },
    {
      "anonymous": false,
      "inputs": [
        {
          "indexed": true,
          "internalType": "address",
          "name": "operator",
          "type": "address"
        },
        {
          "indexed": true,
          "internalType": "address",
          "name": "from",
          "type": "address"
        },
        {
          "indexed": true,
          "internalType": "address",
          "name": "to",
          "type": "address"
        },
        {
          "indexed": false,
          "internalType": "uint256",
          "name": "id",
          "type": "uint256"
        },
        {
          "indexed": false,
          "internalType": "uint256",
          "name": "value",
          "type": "uint256"
        }
      ],
      "name": "TransferSingle",
      "type": "event"
    },
    {
      "anonymous": false,
      "inputs": [
        {
          "indexed": false,
          "internalType": "string",
          "name": "value",
          "type": "string"
        },
        {
          "indexed": true,
          "internalType": "uint256",
          "name": "id",
          "type": "uint256"
        }
      ],
      "name": "URI",
      "type": "event"
    },
    {
      "inputs": [],
      "name": "ERC712_VERSION",
      "outputs": [
        {
          "internalType": "string",
          "name": "",
          "type": "string"
        }
      ],
      "stateMutability": "view",
      "type": "function"
    },
    {
      "inputs": [
        {
          "internalType": "address",
          "name": "account",
          "type": "address"
        },
        {
          "internalType": "uint256",
          "name": "id",
          "type": "uint256"
        }
      ],
      "name": "balanceOf",
      "outputs": [
        {
          "internalType": "uint256",
          "name": "",
          "type": "uint256"
        }
      ],
      "stateMutability": "view",
      "type": "function"
    },
    {
      "inputs": [
        {
          "internalType": "address[]",
          "name": "accounts",
          "type": "address[]"
        },
        {
          "internalType": "uint256[]",
          "name": "ids",
          "type": "uint256[]"
        }
      ],
      "name": "balanceOfBatch",
      "outputs": [
        {
          "internalType": "uint256[]",
          "name": "",
          "type": "uint256[]"
        }
      ],
      "stateMutability": "view",
      "type": "function"
    },
    {
      "inputs": [
        {
          "internalType": "address[]",
          "name": "initialOwners",
          "type": "address[]"
        },
        {
          "internalType": "uint256[][]",
          "name": "idsPerOwner",
          "type": "uint256[][]"
        }
      ],
      "name": "batchCreate",
      "outputs": [],
      "stateMutability": "nonpayable",
      "type": "function"
    },
    {
      "inputs": [
        {
          "internalType": "uint256[]",
          "name": "ids",
          "type": "uint256[]"
        }
      ],
      "name": "batchMakePermanent",
      "outputs": [],
      "stateMutability": "nonpayable",
      "type": "function"
    },
    {
      "inputs": [
        {
          "internalType": "address",
          "name": "_to",
          "type": "address"
        },
        {
          "internalType": "uint256[]",
          "name": "_ids",
          "type": "uint256[]"
        },
        {
          "internalType": "uint256[]",
          "name": "_quantities",
          "type": "uint256[]"
        },
        {
          "internalType": "bytes",
          "name": "_data",
          "type": "bytes"
        }
      ],
      "name": "batchMint",
      "outputs": [],
      "stateMutability": "nonpayable",
      "type": "function"
    },
    {
      "inputs": [
        {
          "internalType": "address",
          "name": "from",
          "type": "address"
        },
        {
          "internalType": "address[]",
          "name": "recipients",
          "type": "address[]"
        },
        {
          "internalType": "uint256[][]",
          "name": "idsPerRecipient",
          "type": "uint256[][]"
        }
      ],
      "name": "batchTransferToMany",
      "outputs": [],
      "stateMutability": "nonpayable",
      "type": "function"
    },
    {
      "inputs": [],
      "name": "contractURI",
      "outputs": [
        {
          "internalType": "string",
          "name": "",
          "type": "string"
        }
      ],
      "stateMutability": "view",
      "type": "function"
    },
    {
      "inputs": [
        {
          "internalType": "address",
          "name": "_initialOwner",
          "type": "address"
        },
        {
          "internalType": "uint256",
          "name": "_id",
          "type": "uint256"
        },
        {
          "internalType": "uint256",
          "name": "_initialSupply",
          "type": "uint256"
        },
        {
          "internalType": "string",
          "name": "_uri",
          "type": "string"
        },
        {
          "internalType": "bytes",
          "name": "_data",
          "type": "bytes"
        }
      ],
      "name": "create",
      "outputs": [
        {
          "internalType": "uint256",
          "name": "",
          "type": "uint256"
        }
      ],
      "stateMutability": "nonpayable",
      "type": "function"
    },
    {
      "inputs": [
        {
          "internalType": "uint256",
          "name": "",
          "type": "uint256"
        }
      ],
      "name": "creators",
      "outputs": [
        {
          "internalType": "address",
          "name": "",
          "type": "address"
        }
      ],
      "stateMutability": "view",
      "type": "function"
    },
    {
      "inputs": [
        {
          "internalType": "address",
          "name": "userAddress",
          "type": "address"
        },
        {
          "internalType": "bytes",
          "name": "functionSignature",
          "type": "bytes"
        },
        {
          "internalType": "bytes32",
          "name": "sigR",
          "type": "bytes32"
        },
        {
          "internalType": "bytes32",
          "name": "sigS",
          "type": "bytes32"
        },
        {
          "internalType": "uint8",
          "name": "sigV",
          "type": "uint8"
        }
      ],
      "name": "executeMetaTransaction",
      "outputs": [
        {
          "internalType": "bytes",
          "name": "",
          "type": "bytes"
        }
      ],
      "stateMutability": "payable",
      "type": "function"
    },
    {
      "inputs": [
        {
          "internalType": "uint256",
          "name": "_id",
          "type": "uint256"
        }
      ],
      "name": "exists",
      "outputs": [
        {
          "internalType": "bool",
          "name": "",
          "type": "bool"
        }
      ],
      "stateMutability": "view",
      "type": "function"
    },
    {
      "inputs": [],
      "name": "getChainId",
      "outputs": [
        {
          "internalType": "uint256",
          "name": "",
          "type": "uint256"
        }
      ],
      "stateMutability": "view",
      "type": "function"
    },
    {
      "inputs": [],
      "name": "getDomainSeperator",
      "outputs": [
        {
          "internalType": "bytes32",
          "name": "",
          "type": "bytes32"
        }
      ],
      "stateMutability": "view",
      "type": "function"
    },
    {
      "inputs": [
        {
          "internalType": "address",
          "name": "user",
          "type": "address"
        }
      ],
      "name": "getNonce",
      "outputs": [
        {
          "internalType": "uint256",
          "name": "nonce",
          "type": "uint256"
        }
      ],
      "stateMutability": "view",
      "type": "function"
    },
    {
      "inputs": [
        {
          "internalType": "address",
          "name": "_owner",
          "type": "address"
        },
        {
          "internalType": "address",
          "name": "_operator",
          "type": "address"
        }
      ],
      "name": "isApprovedForAll",
      "outputs": [
        {
          "internalType": "bool",
          "name": "isOperator",
          "type": "bool"
        }
      ],
      "stateMutability": "view",
      "type": "function"
    },
    {
      "inputs": [
        {
          "internalType": "uint256",
          "name": "id",
          "type": "uint256"
        }
      ],
      "name": "makePermanent",
      "outputs": [],
      "stateMutability": "nonpayable",
      "type": "function"
    },
    {
      "inputs": [
        {
          "internalType": "address",
          "name": "_to",
          "type": "address"
        },
        {
          "internalType": "uint256",
          "name": "_id",
          "type": "uint256"
        },
        {
          "internalType": "uint256",
          "name": "_quantity",
          "type": "uint256"
        },
        {
          "internalType": "bytes",
          "name": "_data",
          "type": "bytes"
        }
      ],
      "name": "mint",
      "outputs": [],
      "stateMutability": "nonpayable",
      "type": "function"
    },
    {
      "inputs": [],
      "name": "name",
      "outputs": [
        {
          "internalType": "string",
          "name": "",
          "type": "string"
        }
      ],
      "stateMutability": "view",
      "type": "function"
    },
    {
      "inputs": [],
      "name": "owner",
      "outputs": [
        {
          "internalType": "address",
          "name": "",
          "type": "address"
        }
      ],
      "stateMutability": "view",
      "type": "function"
    },
    {
      "inputs": [],
      "name": "renounceOwnership",
      "outputs": [],
      "stateMutability": "nonpayable",
      "type": "function"
    },
    {
      "inputs": [
        {
          "internalType": "address",
          "name": "from",
          "type": "address"
        },
        {
          "internalType": "address",
          "name": "to",
          "type": "address"
        },
        {
          "internalType": "uint256[]",
          "name": "ids",
          "type": "uint256[]"
        },
        {
          "internalType": "uint256[]",
          "name": "amounts",
          "type": "uint256[]"
        },
        {
          "internalType": "bytes",
          "name": "data",
          "type": "bytes"
        }
      ],
      "name": "safeBatchTransferFrom",
      "outputs": [],
      "stateMutability": "nonpayable",
      "type": "function"
    },
    {
      "inputs": [
        {
          "internalType": "address",
          "name": "from",
          "type": "address"
        },
        {
          "internalType": "address",
          "name": "to",
          "type": "address"
        },
        {
          "internalType": "uint256",
          "name": "id",
          "type": "uint256"
        },
        {
          "internalType": "uint256",
          "name": "amount",
          "type": "uint256"
        },
        {
          "internalType": "bytes",
          "name": "data",
          "type": "bytes"
        }
      ],
      "name": "safeTransferFrom",
      "outputs": [],
      "stateMutability": "nonpayable",
      "type": "function"
    },
    {
      "inputs": [
        {
          "internalType": "address",
          "name": "operator",
          "type": "address"
        },
        {
          "internalType": "bool",
          "name": "approved",
          "type": "bool"
        }
      ],
      "name": "setApprovalForAll",
      "outputs": [],
      "stateMutability": "nonpayable",
      "type": "function"
    },
    {
      "inputs": [
        {
          "internalType": "string",
          "name": "newuri",
          "type": "string"
        }
      ],
      "name": "setContractURI",
      "outputs": [],
      "stateMutability": "nonpayable",
      "type": "function"
    },
    {
      "inputs": [
        {
          "internalType": "address",
          "name": "_to",
          "type": "address"
        },
        {
          "internalType": "uint256[]",
          "name": "_ids",
          "type": "uint256[]"
        }
      ],
      "name": "setCreator",
      "outputs": [],
      "stateMutability": "nonpayable",
      "type": "function"
    },
    {
      "inputs": [
        {
          "internalType": "uint256",
          "name": "_tokenId",
          "type": "uint256"
        },
        {
          "internalType": "string",
          "name": "_newURI",
          "type": "string"
        }
      ],
      "name": "setCustomURI",
      "outputs": [],
      "stateMutability": "nonpayable",
      "type": "function"
    },
    {
      "inputs": [
        {
          "internalType": "string",
          "name": "_newURI",
          "type": "string"
        }
      ],
      "name": "setURI",
      "outputs": [],
      "stateMutability": "nonpayable",
      "type": "function"
    },
    {
      "inputs": [
        {
          "internalType": "bytes4",
          "name": "interfaceId",
          "type": "bytes4"
        }
      ],
      "name": "supportsInterface",
      "outputs": [
        {
          "internalType": "bool",
          "name": "",
          "type": "bool"
        }
      ],
      "stateMutability": "view",
      "type": "function"
    },
    {
      "inputs": [],
      "name": "symbol",
      "outputs": [
        {
          "internalType": "string",
          "name": "",
          "type": "string"
        }
      ],
      "stateMutability": "view",
      "type": "function"
    },
    {
      "inputs": [
        {
          "internalType": "uint256",
          "name": "",
          "type": "uint256"
        }
      ],
      "name": "tokenSupply",
      "outputs": [
        {
          "internalType": "uint256",
          "name": "",
          "type": "uint256"
        }
      ],
      "stateMutability": "view",
      "type": "function"
    },
    {
      "inputs": [
        {
          "internalType": "uint256",
          "name": "_id",
          "type": "uint256"
        }
      ],
      "name": "totalSupply",
      "outputs": [
        {
          "internalType": "uint256",
          "name": "",
          "type": "uint256"
        }
      ],
      "stateMutability": "view",
      "type": "function"
    },
    {
      "inputs": [
        {
          "internalType": "address",
          "name": "newOwner",
          "type": "address"
        }
      ],
      "name": "transferOwnership",
      "outputs": [],
      "stateMutability": "nonpayable",
      "type": "function"
    },
    {
      "inputs": [
        {
          "internalType": "uint256",
          "name": "_id",
          "type": "uint256"
        }
      ],
      "name": "uri",
      "outputs": [
        {
          "internalType": "string",
          "name": "",
          "type": "string"
        }
      ],
      "stateMutability": "view",
      "type": "function"
    }
  ],
  "transactionHash": "0x76ce27d7867a21809470c9956954a62a6d4d37b21f9ac80251e5d5252ab0afb0",
  "args": [
    "0x5FbDB2315678afecb367f032d93F642f64180aa3",
    "Gangen Alumni",
    "GANGA",
    "https://gangenalumni.s3.us-east-2.amazonaws.com/rinkeby/data/contract.json",
    "https://gangenalumni.s3.us-east-2.amazonaws.com/rinkeby/data/{id}.json"
  ],
  "solcInputHash": "6cd5c43b4ecc6f763e92ec33592c9f62",
  "bytecode": "0x60806040526000600360006101000a81548160ff0219169083151502179055503480156200002c57600080fd5b506040516200663b3803806200663b8339818101604052810190620000529190620005ef565b83838287816200006881620001c760201b60201c565b50620000896200007d620001e360201b60201c565b620001ff60201b60201c565b83600b9080519060200190620000a1929190620004b6565b5082600c9080519060200190620000ba929190620004b6565b5080600760006101000a81548173ffffffffffffffffffffffffffffffffffffffff021916908373ffffffffffffffffffffffffffffffffffffffff1602179055506200019f600b80546200010f9062000881565b80601f01602080910402602001604051908101604052809291908181526020018280546200013d9062000881565b80156200018e5780601f1062000162576101008083540402835291602001916200018e565b820191906000526020600020905b8154815290600101906020018083116200017057829003601f168201915b5050505050620002c560201b60201c565b5050505081600d9080519060200190620001bb929190620004b6565b5050505050506200099f565b8060029080519060200190620001df929190620004b6565b5050565b6000620001fa6200034760201b620022df1760201c565b905090565b6000600660009054906101000a900473ffffffffffffffffffffffffffffffffffffffff16905081600660006101000a81548173ffffffffffffffffffffffffffffffffffffffff021916908373ffffffffffffffffffffffffffffffffffffffff1602179055508173ffffffffffffffffffffffffffffffffffffffff168173ffffffffffffffffffffffffffffffffffffffff167f8be0079c531659141344cd1fd0a4f28419497f9722a3daafe3b4186f6b6457e060405160405180910390a35050565b600360009054906101000a900460ff161562000318576040517f08c379a00000000000000000000000000000000000000000000000000000000081526004016200030f906200077b565b60405180910390fd5b6200032981620003fa60201b60201c565b6001600360006101000a81548160ff02191690831515021790555050565b60003073ffffffffffffffffffffffffffffffffffffffff163373ffffffffffffffffffffffffffffffffffffffff161415620003f357600080368080601f016020809104026020016040519081016040528093929190818152602001838380828437600081840152601f19601f820116905080830192505050505050509050600080369050905073ffffffffffffffffffffffffffffffffffffffff818301511692505050620003f7565b3390505b90565b6040518060800160405280604f8152602001620065ec604f91398051906020012081805190602001206040518060400160405280600181526020017f3100000000000000000000000000000000000000000000000000000000000000815250805190602001203062000471620004a960201b60201c565b60001b6040516020016200048a9594939291906200071e565b6040516020818303038152906040528051906020012060048190555050565b6000804690508091505090565b828054620004c49062000881565b90600052602060002090601f016020900481019282620004e8576000855562000534565b82601f106200050357805160ff191683800117855562000534565b8280016001018555821562000534579182015b828111156200053357825182559160200191906001019062000516565b5b50905062000543919062000547565b5090565b5b808211156200056257600081600090555060010162000548565b5090565b60006200057d6200057784620007c6565b6200079d565b9050828152602081018484840111156200059657600080fd5b620005a38482856200084b565b509392505050565b600081519050620005bc8162000985565b92915050565b600082601f830112620005d457600080fd5b8151620005e684826020860162000566565b91505092915050565b600080600080600060a086880312156200060857600080fd5b60006200061888828901620005ab565b955050602086015167ffffffffffffffff8111156200063657600080fd5b6200064488828901620005c2565b945050604086015167ffffffffffffffff8111156200066257600080fd5b6200067088828901620005c2565b935050606086015167ffffffffffffffff8111156200068e57600080fd5b6200069c88828901620005c2565b925050608086015167ffffffffffffffff811115620006ba57600080fd5b620006c888828901620005c2565b9150509295509295909350565b620006e0816200080d565b82525050565b620006f18162000821565b82525050565b600062000706600e83620007fc565b915062000713826200095c565b602082019050919050565b600060a082019050620007356000830188620006e6565b620007446020830187620006e6565b620007536040830186620006e6565b620007626060830185620006d5565b620007716080830184620006e6565b9695505050505050565b600060208201905081810360008301526200079681620006f7565b9050919050565b6000620007a9620007bc565b9050620007b78282620008b7565b919050565b6000604051905090565b600067ffffffffffffffff821115620007e457620007e36200091c565b5b620007ef826200094b565b9050602081019050919050565b600082825260208201905092915050565b60006200081a826200082b565b9050919050565b6000819050919050565b600073ffffffffffffffffffffffffffffffffffffffff82169050919050565b60005b838110156200086b5780820151818401526020810190506200084e565b838111156200087b576000848401525b50505050565b600060028204905060018216806200089a57607f821691505b60208210811415620008b157620008b0620008ed565b5b50919050565b620008c2826200094b565b810181811067ffffffffffffffff82111715620008e457620008e36200091c565b5b80604052505050565b7f4e487b7100000000000000000000000000000000000000000000000000000000600052602260045260246000fd5b7f4e487b7100000000000000000000000000000000000000000000000000000000600052604160045260246000fd5b6000601f19601f8301169050919050565b7f616c726561647920696e69746564000000000000000000000000000000000000600082015250565b62000990816200080d565b81146200099c57600080fd5b50565b615c3d80620009af6000396000f3fe6080604052600436106101f85760003560e01c8063715018a61161010d578063b48ab8b6116100a0578063d2a6b51a1161006f578063d2a6b51a1461076b578063e8a3d48514610794578063e985e9c5146107bf578063f242432a146107fc578063f2fde38b14610825576101f8565b8063b48ab8b61461069f578063bd85b039146106c8578063c00cdae914610705578063cd53d08e1461072e576101f8565b80638da5cb5b116100dc5780638da5cb5b146105f7578063938e3d7b1461062257806395d89b411461064b578063a22cb46514610676576101f8565b8063715018a614610565578063731133e91461057c5780637adbaa02146105a55780638678fb39146105ce576101f8565b80632693ebf2116101905780633408e4701161015f5780633408e4701461045a57806336a100d5146104855780633adf80b4146104c25780634e1273f4146104eb5780634f558e7914610528576101f8565b80632693ebf21461038e5780632d0335ab146103cb5780632e24afb0146104085780632eb2c2d614610431576101f8565b80630c53c51c116101cc5780630c53c51c146102cb5780630e89341c146102fb5780630f7e59701461033857806320379ee514610363576101f8565b8062fdd58e146101fd57806301ffc9a71461023a57806302fe53051461027757806306fdde03146102a0575b600080fd5b34801561020957600080fd5b50610224600480360381019061021f919061412e565b61084e565b6040516102319190614f61565b60405180910390f35b34801561024657600080fd5b50610261600480360381019061025c91906143a5565b610917565b60405161026e9190614b9d565b60405180910390f35b34801561028357600080fd5b5061029e60048036038101906102999190614420565b6109f9565b005b3480156102ac57600080fd5b506102b5610a81565b6040516102c29190614c7f565b60405180910390f35b6102e560048036038101906102e0919061409f565b610b0f565b6040516102f29190614c5d565b60405180910390f35b34801561030757600080fd5b50610322600480360381019061031d9190614461565b610d81565b60405161032f9190614c7f565b60405180910390f35b34801561034457600080fd5b5061034d610f2b565b60405161035a9190614c7f565b60405180910390f35b34801561036f57600080fd5b50610378610f64565b6040516103859190614bb8565b60405180910390f35b34801561039a57600080fd5b506103b560048036038101906103b09190614461565b610f6e565b6040516103c29190614f61565b60405180910390f35b3480156103d757600080fd5b506103f260048036038101906103ed9190613d32565b610f86565b6040516103ff9190614f61565b60405180910390f35b34801561041457600080fd5b5061042f600480360381019061042a9190614461565b610fcf565b005b34801561043d57600080fd5b5061045860048036038101906104539190613d97565b61110a565b005b34801561046657600080fd5b5061046f6111ab565b60405161047c9190614f61565b60405180910390f35b34801561049157600080fd5b506104ac60048036038101906104a791906141e5565b6111b8565b6040516104b99190614f61565b60405180910390f35b3480156104ce57600080fd5b506104e960048036038101906104e4919061448a565b611373565b005b3480156104f757600080fd5b50610512600480360381019061050d91906142f8565b611481565b60405161051f9190614b44565b60405180910390f35b34801561053457600080fd5b5061054f600480360381019061054a9190614461565b611632565b60405161055c9190614b9d565b60405180910390f35b34801561057157600080fd5b5061057a611644565b005b34801561058857600080fd5b506105a3600480360381019061059e919061416a565b6116cc565b005b3480156105b157600080fd5b506105cc60048036038101906105c79190614364565b6117c5565b005b3480156105da57600080fd5b506105f560048036038101906105f0919061428c565b611831565b005b34801561060357600080fd5b5061060c61197a565b6040516106199190614a29565b60405180910390f35b34801561062e57600080fd5b5061064960048036038101906106449190614420565b6119a4565b005b34801561065757600080fd5b50610660611a3a565b60405161066d9190614c7f565b60405180910390f35b34801561068257600080fd5b5061069d60048036038101906106989190614063565b611ac8565b005b3480156106ab57600080fd5b506106c660048036038101906106c19190613fb8565b611ade565b005b3480156106d457600080fd5b506106ef60048036038101906106ea9190614461565b611c81565b6040516106fc9190614f61565b60405180910390f35b34801561071157600080fd5b5061072c60048036038101906107279190613ee5565b611c9e565b005b34801561073a57600080fd5b5061075560048036038101906107509190614461565b611e9b565b6040516107629190614a29565b60405180910390f35b34801561077757600080fd5b50610792600480360381019061078d9190613f64565b611ece565b005b3480156107a057600080fd5b506107a9611fb2565b6040516107b69190614c7f565b60405180910390f35b3480156107cb57600080fd5b506107e660048036038101906107e19190613d5b565b612044565b6040516107f39190614b9d565b60405180910390f35b34801561080857600080fd5b50610823600480360381019061081e9190613e56565b612146565b005b34801561083157600080fd5b5061084c60048036038101906108479190613d32565b6121e7565b005b60008073ffffffffffffffffffffffffffffffffffffffff168373ffffffffffffffffffffffffffffffffffffffff1614156108bf576040517f08c379a00000000000000000000000000000000000000000000000000000000081526004016108b690614d21565b60405180910390fd5b60008083815260200190815260200160002060008473ffffffffffffffffffffffffffffffffffffffff1673ffffffffffffffffffffffffffffffffffffffff16815260200190815260200160002054905092915050565b60007fd9b67a26000000000000000000000000000000000000000000000000000000007bffffffffffffffffffffffffffffffffffffffffffffffffffffffff1916827bffffffffffffffffffffffffffffffffffffffffffffffffffffffff191614806109e257507f0e89341c000000000000000000000000000000000000000000000000000000007bffffffffffffffffffffffffffffffffffffffffffffffffffffffff1916827bffffffffffffffffffffffffffffffffffffffffffffffffffffffff1916145b806109f257506109f182612390565b5b9050919050565b610a016123fa565b73ffffffffffffffffffffffffffffffffffffffff16610a1f61197a565b73ffffffffffffffffffffffffffffffffffffffff1614610a75576040517f08c379a0000000000000000000000000000000000000000000000000000000008152600401610a6c90614e61565b60405180910390fd5b610a7e81612409565b50565b600b8054610a8e9061527e565b80601f0160208091040260200160405190810160405280929190818152602001828054610aba9061527e565b8015610b075780601f10610adc57610100808354040283529160200191610b07565b820191906000526020600020905b815481529060010190602001808311610aea57829003601f168201915b505050505081565b606060006040518060600160405280600560008a73ffffffffffffffffffffffffffffffffffffffff1673ffffffffffffffffffffffffffffffffffffffff1681526020019081526020016000205481526020018873ffffffffffffffffffffffffffffffffffffffff168152602001878152509050610b928782878787612423565b610bd1576040517f08c379a0000000000000000000000000000000000000000000000000000000008152600401610bc890614e81565b60405180910390fd5b610c246001600560008a73ffffffffffffffffffffffffffffffffffffffff1673ffffffffffffffffffffffffffffffffffffffff1681526020019081526020016000205461252c90919063ffffffff16565b600560008973ffffffffffffffffffffffffffffffffffffffff1673ffffffffffffffffffffffffffffffffffffffff168152602001908152602001600020819055507f5845892132946850460bff5a0083f71031bc5bf9aadcd40f1de79423eac9b10b873388604051610c9a93929190614a44565b60405180910390a16000803073ffffffffffffffffffffffffffffffffffffffff16888a604051602001610ccf9291906149ca565b604051602081830303815290604052604051610ceb91906149b3565b6000604051808303816000865af19150503d8060008114610d28576040519150601f19603f3d011682016040523d82523d6000602084013e610d2d565b606091505b509150915081610d72576040517f08c379a0000000000000000000000000000000000000000000000000000000008152600401610d6990614d61565b60405180910390fd5b80935050505095945050505050565b6060610d8c82612542565b610dcb576040517f08c379a0000000000000000000000000000000000000000000000000000000008152600401610dc290614e01565b60405180910390fd5b6000600a60008481526020019081526020016000208054610deb9061527e565b80601f0160208091040260200160405190810160405280929190818152602001828054610e179061527e565b8015610e645780601f10610e3957610100808354040283529160200191610e64565b820191906000526020600020905b815481529060010190602001808311610e4757829003601f168201915b50505050509050600081511115610f1957600a60008481526020019081526020016000208054610e939061527e565b80601f0160208091040260200160405190810160405280929190818152602001828054610ebf9061527e565b8015610f0c5780601f10610ee157610100808354040283529160200191610f0c565b820191906000526020600020905b815481529060010190602001808311610eef57829003601f168201915b5050505050915050610f26565b610f22836125ae565b9150505b919050565b6040518060400160405280600181526020017f310000000000000000000000000000000000000000000000000000000000000081525081565b6000600454905090565b60096020528060005260406000206000915090505481565b6000600560008373ffffffffffffffffffffffffffffffffffffffff1673ffffffffffffffffffffffffffffffffffffffff168152602001908152602001600020549050919050565b80610fd86123fa565b73ffffffffffffffffffffffffffffffffffffffff166008600083815260200190815260200160002060009054906101000a900473ffffffffffffffffffffffffffffffffffffffff1673ffffffffffffffffffffffffffffffffffffffff1614611078576040517f08c379a000000000000000000000000000000000000000000000000000000000815260040161106f90614f41565b60405180910390fd5b61108182612542565b6110c0576040517f08c379a00000000000000000000000000000000000000000000000000000000081526004016110b790614e41565b60405180910390fd5b60006110cb83610d81565b9050827fa109ba539900bf1b633f956d63c96fc89b814c7287f7aa50a9216d0b55657207826040516110fd9190614c7f565b60405180910390a2505050565b6111126123fa565b73ffffffffffffffffffffffffffffffffffffffff168573ffffffffffffffffffffffffffffffffffffffff1614806111585750611157856111526123fa565b612044565b5b611197576040517f08c379a000000000000000000000000000000000000000000000000000000000815260040161118e90614de1565b60405180910390fd5b6111a48585858585612642565b5050505050565b6000804690508091505090565b60006111c26123fa565b73ffffffffffffffffffffffffffffffffffffffff166111e061197a565b73ffffffffffffffffffffffffffffffffffffffff1614611236576040517f08c379a000000000000000000000000000000000000000000000000000000000815260040161122d90614e61565b60405180910390fd5b61123f85612542565b1561127f576040517f08c379a000000000000000000000000000000000000000000000000000000000815260040161127690614cc1565b60405180910390fd5b6112876123fa565b6008600087815260200190815260200160002060006101000a81548173ffffffffffffffffffffffffffffffffffffffff021916908373ffffffffffffffffffffffffffffffffffffffff1602179055506000835111156113435782600a6000878152602001908152602001600020908051906020019061130992919061393b565b50847f6bb7ff708619ba0610cba295a58592e0451dee2622938c8755667688daf3529b8460405161133a9190614c7f565b60405180910390a25b61134f868686856129a2565b83600960008781526020019081526020016000208190555084905095945050505050565b8161137c6123fa565b73ffffffffffffffffffffffffffffffffffffffff166008600083815260200190815260200160002060009054906101000a900473ffffffffffffffffffffffffffffffffffffffff1673ffffffffffffffffffffffffffffffffffffffff161461141c576040517f08c379a000000000000000000000000000000000000000000000000000000000815260040161141390614f41565b60405180910390fd5b81600a6000858152602001908152602001600020908051906020019061144392919061393b565b50827f6bb7ff708619ba0610cba295a58592e0451dee2622938c8755667688daf3529b836040516114749190614c7f565b60405180910390a2505050565b606081518351146114c7576040517f08c379a00000000000000000000000000000000000000000000000000000000081526004016114be90614ee1565b60405180910390fd5b6000835167ffffffffffffffff81111561150a577f4e487b7100000000000000000000000000000000000000000000000000000000600052604160045260246000fd5b6040519080825280602002602001820160405280156115385781602001602082028036833780820191505090505b50905060005b8451811015611627576115d1858281518110611583577f4e487b7100000000000000000000000000000000000000000000000000000000600052603260045260246000fd5b60200260200101518583815181106115c4577f4e487b7100000000000000000000000000000000000000000000000000000000600052603260045260246000fd5b602002602001015161084e565b82828151811061160a577f4e487b7100000000000000000000000000000000000000000000000000000000600052603260045260246000fd5b60200260200101818152505080611620906152e1565b905061153e565b508091505092915050565b600061163d82612542565b9050919050565b61164c6123fa565b73ffffffffffffffffffffffffffffffffffffffff1661166a61197a565b73ffffffffffffffffffffffffffffffffffffffff16146116c0576040517f08c379a00000000000000000000000000000000000000000000000000000000081526004016116b790614e61565b60405180910390fd5b6116ca6000612b38565b565b826116d56123fa565b73ffffffffffffffffffffffffffffffffffffffff166008600083815260200190815260200160002060009054906101000a900473ffffffffffffffffffffffffffffffffffffffff1673ffffffffffffffffffffffffffffffffffffffff1614611775576040517f08c379a000000000000000000000000000000000000000000000000000000000815260040161176c90614f41565b60405180910390fd5b611781858585856129a2565b6117a783600960008781526020019081526020016000205461252c90919063ffffffff16565b60096000868152602001908152602001600020819055505050505050565b60005b815181101561182d5761181a82828151811061180d577f4e487b7100000000000000000000000000000000000000000000000000000000600052603260045260246000fd5b6020026020010151610fcf565b8080611825906152e1565b9150506117c8565b5050565b60005b8251811015611975576000838281518110611878577f4e487b7100000000000000000000000000000000000000000000000000000000600052603260045260246000fd5b6020026020010151905060008383815181106118bd577f4e487b7100000000000000000000000000000000000000000000000000000000600052603260045260246000fd5b6020026020010151905060005b815181101561195f57600082828151811061190e577f4e487b7100000000000000000000000000000000000000000000000000000000600052603260045260246000fd5b6020026020010151905060006001905061194985838360405180602001604052806000815250604051806020016040528060008152506111b8565b5050508080611957906152e1565b9150506118ca565b505050808061196d906152e1565b915050611834565b505050565b6000600660009054906101000a900473ffffffffffffffffffffffffffffffffffffffff16905090565b6119ac6123fa565b73ffffffffffffffffffffffffffffffffffffffff166119ca61197a565b73ffffffffffffffffffffffffffffffffffffffff1614611a20576040517f08c379a0000000000000000000000000000000000000000000000000000000008152600401611a1790614e61565b60405180910390fd5b80600d9080519060200190611a3692919061393b565b5050565b600c8054611a479061527e565b80601f0160208091040260200160405190810160405280929190818152602001828054611a739061527e565b8015611ac05780601f10611a9557610100808354040283529160200191611ac0565b820191906000526020600020905b815481529060010190602001808311611aa357829003601f168201915b505050505081565b611ada611ad36123fa565b8383612bfe565b5050565b60005b8351811015611c6e576000848281518110611b25577f4e487b7100000000000000000000000000000000000000000000000000000000600052603260045260246000fd5b60200260200101519050611b376123fa565b73ffffffffffffffffffffffffffffffffffffffff166008600083815260200190815260200160002060009054906101000a900473ffffffffffffffffffffffffffffffffffffffff1673ffffffffffffffffffffffffffffffffffffffff1614611bd7576040517f08c379a0000000000000000000000000000000000000000000000000000000008152600401611bce90614d01565b60405180910390fd5b6000848381518110611c12577f4e487b7100000000000000000000000000000000000000000000000000000000600052603260045260246000fd5b60200260200101519050611c4281600960008581526020019081526020016000205461252c90919063ffffffff16565b600960008481526020019081526020016000208190555050508080611c66906152e1565b915050611ae1565b50611c7b84848484612d6b565b50505050565b600060096000838152602001908152602001600020549050919050565b60005b8251811015611e95576000838281518110611ce5577f4e487b7100000000000000000000000000000000000000000000000000000000600052603260045260246000fd5b602002602001015190506000838381518110611d2a577f4e487b7100000000000000000000000000000000000000000000000000000000600052603260045260246000fd5b602002602001015190506000815167ffffffffffffffff811115611d77577f4e487b7100000000000000000000000000000000000000000000000000000000600052604160045260246000fd5b604051908082528060200260200182016040528015611da55781602001602082028036833780820191505090505b50905060005b8251811015611e5c576000611e0089858481518110611df3577f4e487b7100000000000000000000000000000000000000000000000000000000600052603260045260246000fd5b602002602001015161084e565b905080838381518110611e3c577f4e487b7100000000000000000000000000000000000000000000000000000000600052603260045260246000fd5b602002602001018181525050508080611e54906152e1565b915050611dab565b506000604051806020016040528060008152509050611e7e888585858561110a565b505050508080611e8d906152e1565b915050611ca1565b50505050565b60086020528060005260406000206000915054906101000a900473ffffffffffffffffffffffffffffffffffffffff1681565b600073ffffffffffffffffffffffffffffffffffffffff168273ffffffffffffffffffffffffffffffffffffffff161415611f3e576040517f08c379a0000000000000000000000000000000000000000000000000000000008152600401611f3590614ea1565b60405180910390fd5b60005b8151811015611fad576000828281518110611f85577f4e487b7100000000000000000000000000000000000000000000000000000000600052603260045260246000fd5b60200260200101519050611f998482612fd5565b508080611fa5906152e1565b915050611f41565b505050565b6060600d8054611fc19061527e565b80601f0160208091040260200160405190810160405280929190818152602001828054611fed9061527e565b801561203a5780601f1061200f5761010080835404028352916020019161203a565b820191906000526020600020905b81548152906001019060200180831161201d57829003601f168201915b5050505050905090565b600080600760009054906101000a900473ffffffffffffffffffffffffffffffffffffffff1690508273ffffffffffffffffffffffffffffffffffffffff168173ffffffffffffffffffffffffffffffffffffffff1663c4552791866040518263ffffffff1660e01b81526004016120bc9190614a29565b60206040518083038186803b1580156120d457600080fd5b505afa1580156120e8573d6000803e3d6000fd5b505050506040513d601f19601f8201168201806040525081019061210c91906143f7565b73ffffffffffffffffffffffffffffffffffffffff161415612132576001915050612140565b61213c84846130d5565b9150505b92915050565b61214e6123fa565b73ffffffffffffffffffffffffffffffffffffffff168573ffffffffffffffffffffffffffffffffffffffff16148061219457506121938561218e6123fa565b612044565b5b6121d3576040517f08c379a00000000000000000000000000000000000000000000000000000000081526004016121ca90614d81565b60405180910390fd5b6121e08585858585613169565b5050505050565b6121ef6123fa565b73ffffffffffffffffffffffffffffffffffffffff1661220d61197a565b73ffffffffffffffffffffffffffffffffffffffff1614612263576040517f08c379a000000000000000000000000000000000000000000000000000000000815260040161225a90614e61565b60405180910390fd5b600073ffffffffffffffffffffffffffffffffffffffff168173ffffffffffffffffffffffffffffffffffffffff1614156122d3576040517f08c379a00000000000000000000000000000000000000000000000000000000081526004016122ca90614d41565b60405180910390fd5b6122dc81612b38565b50565b60003073ffffffffffffffffffffffffffffffffffffffff163373ffffffffffffffffffffffffffffffffffffffff16141561238957600080368080601f016020809104026020016040519081016040528093929190818152602001838380828437600081840152601f19601f820116905080830192505050505050509050600080369050905073ffffffffffffffffffffffffffffffffffffffff81830151169250505061238d565b3390505b90565b60007f01ffc9a7000000000000000000000000000000000000000000000000000000007bffffffffffffffffffffffffffffffffffffffffffffffffffffffff1916827bffffffffffffffffffffffffffffffffffffffffffffffffffffffff1916149050919050565b60006124046122df565b905090565b806002908051906020019061241f92919061393b565b5050565b60008073ffffffffffffffffffffffffffffffffffffffff168673ffffffffffffffffffffffffffffffffffffffff161415612494576040517f08c379a000000000000000000000000000000000000000000000000000000000815260040161248b90614da1565b60405180910390fd5b60016124a76124a2876133eb565b613453565b838686604051600081526020016040526040516124c79493929190614c18565b6020604051602081039080840390855afa1580156124e9573d6000803e3d6000fd5b5050506020604051035173ffffffffffffffffffffffffffffffffffffffff168673ffffffffffffffffffffffffffffffffffffffff1614905095945050505050565b6000818361253a9190615137565b905092915050565b60008073ffffffffffffffffffffffffffffffffffffffff166008600084815260200190815260200160002060009054906101000a900473ffffffffffffffffffffffffffffffffffffffff1673ffffffffffffffffffffffffffffffffffffffff1614159050919050565b6060600280546125bd9061527e565b80601f01602080910402602001604051908101604052809291908181526020018280546125e99061527e565b80156126365780601f1061260b57610100808354040283529160200191612636565b820191906000526020600020905b81548152906001019060200180831161261957829003601f168201915b50505050509050919050565b8151835114612686576040517f08c379a000000000000000000000000000000000000000000000000000000000815260040161267d90614f01565b60405180910390fd5b600073ffffffffffffffffffffffffffffffffffffffff168473ffffffffffffffffffffffffffffffffffffffff1614156126f6576040517f08c379a00000000000000000000000000000000000000000000000000000000081526004016126ed90614dc1565b60405180910390fd5b60006127006123fa565b905061271081878787878761348c565b60005b845181101561290d576000858281518110612757577f4e487b7100000000000000000000000000000000000000000000000000000000600052603260045260246000fd5b60200260200101519050600085838151811061279c577f4e487b7100000000000000000000000000000000000000000000000000000000600052603260045260246000fd5b60200260200101519050600080600084815260200190815260200160002060008b73ffffffffffffffffffffffffffffffffffffffff1673ffffffffffffffffffffffffffffffffffffffff1681526020019081526020016000205490508181101561283d576040517f08c379a000000000000000000000000000000000000000000000000000000000815260040161283490614e21565b60405180910390fd5b81810360008085815260200190815260200160002060008c73ffffffffffffffffffffffffffffffffffffffff1673ffffffffffffffffffffffffffffffffffffffff168152602001908152602001600020819055508160008085815260200190815260200160002060008b73ffffffffffffffffffffffffffffffffffffffff1673ffffffffffffffffffffffffffffffffffffffff16815260200190815260200160002060008282546128f29190615137565b9250508190555050505080612906906152e1565b9050612713565b508473ffffffffffffffffffffffffffffffffffffffff168673ffffffffffffffffffffffffffffffffffffffff168273ffffffffffffffffffffffffffffffffffffffff167f4a39dc06d4c0dbc64b70af90fd698a233a518aa5d07e595d983b8c0526c8f7fb8787604051612984929190614b66565b60405180910390a461299a818787878787613494565b505050505050565b600073ffffffffffffffffffffffffffffffffffffffff168473ffffffffffffffffffffffffffffffffffffffff161415612a12576040517f08c379a0000000000000000000000000000000000000000000000000000000008152600401612a0990614f21565b60405180910390fd5b6000612a1c6123fa565b9050612a3d81600087612a2e8861367b565b612a378861367b565b8761348c565b8260008086815260200190815260200160002060008773ffffffffffffffffffffffffffffffffffffffff1673ffffffffffffffffffffffffffffffffffffffff1681526020019081526020016000206000828254612a9c9190615137565b925050819055508473ffffffffffffffffffffffffffffffffffffffff16600073ffffffffffffffffffffffffffffffffffffffff168273ffffffffffffffffffffffffffffffffffffffff167fc3d58168c5ae7397731d063d5bbf3d657854427343f4c083240f7aacaa2d0f628787604051612b1a929190614f7c565b60405180910390a4612b3181600087878787613741565b5050505050565b6000600660009054906101000a900473ffffffffffffffffffffffffffffffffffffffff16905081600660006101000a81548173ffffffffffffffffffffffffffffffffffffffff021916908373ffffffffffffffffffffffffffffffffffffffff1602179055508173ffffffffffffffffffffffffffffffffffffffff168173ffffffffffffffffffffffffffffffffffffffff167f8be0079c531659141344cd1fd0a4f28419497f9722a3daafe3b4186f6b6457e060405160405180910390a35050565b8173ffffffffffffffffffffffffffffffffffffffff168373ffffffffffffffffffffffffffffffffffffffff161415612c6d576040517f08c379a0000000000000000000000000000000000000000000000000000000008152600401612c6490614ec1565b60405180910390fd5b80600160008573ffffffffffffffffffffffffffffffffffffffff1673ffffffffffffffffffffffffffffffffffffffff16815260200190815260200160002060008473ffffffffffffffffffffffffffffffffffffffff1673ffffffffffffffffffffffffffffffffffffffff16815260200190815260200160002060006101000a81548160ff0219169083151502179055508173ffffffffffffffffffffffffffffffffffffffff168373ffffffffffffffffffffffffffffffffffffffff167f17307eab39ab6107e8899845ad3d59bd9653f200f220920489ca2b5937696c3183604051612d5e9190614b9d565b60405180910390a3505050565b600073ffffffffffffffffffffffffffffffffffffffff168473ffffffffffffffffffffffffffffffffffffffff161415612ddb576040517f08c379a0000000000000000000000000000000000000000000000000000000008152600401612dd290614f21565b60405180910390fd5b8151835114612e1f576040517f08c379a0000000000000000000000000000000000000000000000000000000008152600401612e1690614f01565b60405180910390fd5b6000612e296123fa565b9050612e3a8160008787878761348c565b60005b8451811015612f3f57838181518110612e7f577f4e487b7100000000000000000000000000000000000000000000000000000000600052603260045260246000fd5b6020026020010151600080878481518110612ec3577f4e487b7100000000000000000000000000000000000000000000000000000000600052603260045260246000fd5b6020026020010151815260200190815260200160002060008873ffffffffffffffffffffffffffffffffffffffff1673ffffffffffffffffffffffffffffffffffffffff1681526020019081526020016000206000828254612f259190615137565b925050819055508080612f37906152e1565b915050612e3d565b508473ffffffffffffffffffffffffffffffffffffffff16600073ffffffffffffffffffffffffffffffffffffffff168273ffffffffffffffffffffffffffffffffffffffff167f4a39dc06d4c0dbc64b70af90fd698a233a518aa5d07e595d983b8c0526c8f7fb8787604051612fb7929190614b66565b60405180910390a4612fce81600087878787613494565b5050505050565b80612fde6123fa565b73ffffffffffffffffffffffffffffffffffffffff166008600083815260200190815260200160002060009054906101000a900473ffffffffffffffffffffffffffffffffffffffff1673ffffffffffffffffffffffffffffffffffffffff161461307e576040517f08c379a000000000000000000000000000000000000000000000000000000000815260040161307590614f41565b60405180910390fd5b826008600084815260200190815260200160002060006101000a81548173ffffffffffffffffffffffffffffffffffffffff021916908373ffffffffffffffffffffffffffffffffffffffff160217905550505050565b6000600160008473ffffffffffffffffffffffffffffffffffffffff1673ffffffffffffffffffffffffffffffffffffffff16815260200190815260200160002060008373ffffffffffffffffffffffffffffffffffffffff1673ffffffffffffffffffffffffffffffffffffffff16815260200190815260200160002060009054906101000a900460ff16905092915050565b600073ffffffffffffffffffffffffffffffffffffffff168473ffffffffffffffffffffffffffffffffffffffff1614156131d9576040517f08c379a00000000000000000000000000000000000000000000000000000000081526004016131d090614dc1565b60405180910390fd5b60006131e36123fa565b90506132038187876131f48861367b565b6131fd8861367b565b8761348c565b600080600086815260200190815260200160002060008873ffffffffffffffffffffffffffffffffffffffff1673ffffffffffffffffffffffffffffffffffffffff1681526020019081526020016000205490508381101561329a576040517f08c379a000000000000000000000000000000000000000000000000000000000815260040161329190614e21565b60405180910390fd5b83810360008087815260200190815260200160002060008973ffffffffffffffffffffffffffffffffffffffff1673ffffffffffffffffffffffffffffffffffffffff168152602001908152602001600020819055508360008087815260200190815260200160002060008873ffffffffffffffffffffffffffffffffffffffff1673ffffffffffffffffffffffffffffffffffffffff168152602001908152602001600020600082825461334f9190615137565b925050819055508573ffffffffffffffffffffffffffffffffffffffff168773ffffffffffffffffffffffffffffffffffffffff168373ffffffffffffffffffffffffffffffffffffffff167fc3d58168c5ae7397731d063d5bbf3d657854427343f4c083240f7aacaa2d0f6288886040516133cc929190614f7c565b60405180910390a46133e2828888888888613741565b50505050505050565b6000604051806080016040528060438152602001615bc56043913980519060200120826000015183602001518460400151805190602001206040516020016134369493929190614bd3565b604051602081830303815290604052805190602001209050919050565b600061345d610f64565b8260405160200161346f9291906149f2565b604051602081830303815290604052805190602001209050919050565b505050505050565b6134b38473ffffffffffffffffffffffffffffffffffffffff16613928565b15613673578373ffffffffffffffffffffffffffffffffffffffff1663bc197c8187878686866040518663ffffffff1660e01b81526004016134f9959493929190614a82565b602060405180830381600087803b15801561351357600080fd5b505af192505050801561354457506040513d601f19601f8201168201806040525081019061354191906143ce565b60015b6135ea576135506153e5565b806308c379a014156135ad5750613565615a8d565b8061357057506135af565b806040517f08c379a00000000000000000000000000000000000000000000000000000000081526004016135a49190614c7f565b60405180910390fd5b505b6040517f08c379a00000000000000000000000000000000000000000000000000000000081526004016135e190614ca1565b60405180910390fd5b63bc197c8160e01b7bffffffffffffffffffffffffffffffffffffffffffffffffffffffff1916817bffffffffffffffffffffffffffffffffffffffffffffffffffffffff191614613671576040517f08c379a000000000000000000000000000000000000000000000000000000000815260040161366890614ce1565b60405180910390fd5b505b505050505050565b60606000600167ffffffffffffffff8111156136c0577f4e487b7100000000000000000000000000000000000000000000000000000000600052604160045260246000fd5b6040519080825280602002602001820160405280156136ee5781602001602082028036833780820191505090505b509050828160008151811061372c577f4e487b7100000000000000000000000000000000000000000000000000000000600052603260045260246000fd5b60200260200101818152505080915050919050565b6137608473ffffffffffffffffffffffffffffffffffffffff16613928565b15613920578373ffffffffffffffffffffffffffffffffffffffff1663f23a6e6187878686866040518663ffffffff1660e01b81526004016137a6959493929190614aea565b602060405180830381600087803b1580156137c057600080fd5b505af19250505080156137f157506040513d601f19601f820116820180604052508101906137ee91906143ce565b60015b613897576137fd6153e5565b806308c379a0141561385a5750613812615a8d565b8061381d575061385c565b806040517f08c379a00000000000000000000000000000000000000000000000000000000081526004016138519190614c7f565b60405180910390fd5b505b6040517f08c379a000000000000000000000000000000000000000000000000000000000815260040161388e90614ca1565b60405180910390fd5b63f23a6e6160e01b7bffffffffffffffffffffffffffffffffffffffffffffffffffffffff1916817bffffffffffffffffffffffffffffffffffffffffffffffffffffffff19161461391e576040517f08c379a000000000000000000000000000000000000000000000000000000000815260040161391590614ce1565b60405180910390fd5b505b505050505050565b600080823b905060008111915050919050565b8280546139479061527e565b90600052602060002090601f01602090048101928261396957600085556139b0565b82601f1061398257805160ff19168380011785556139b0565b828001600101855582156139b0579182015b828111156139af578251825591602001919060010190613994565b5b5090506139bd91906139c1565b5090565b5b808211156139da5760008160009055506001016139c2565b5090565b60006139f16139ec84614fca565b614fa5565b90508083825260208201905082856020860282011115613a1057600080fd5b60005b85811015613a405781613a268882613bb8565b845260208401935060208301925050600181019050613a13565b5050509392505050565b6000613a5d613a5884614ff6565b614fa5565b90508083825260208201905082856020860282011115613a7c57600080fd5b60005b85811015613ac657813567ffffffffffffffff811115613a9e57600080fd5b808601613aab8982613c21565b85526020850194506020840193505050600181019050613a7f565b5050509392505050565b6000613ae3613ade84615022565b614fa5565b90508083825260208201905082856020860282011115613b0257600080fd5b60005b85811015613b325781613b188882613d08565b845260208401935060208301925050600181019050613b05565b5050509392505050565b6000613b4f613b4a8461504e565b614fa5565b905082815260208101848484011115613b6757600080fd5b613b7284828561523c565b509392505050565b6000613b8d613b888461507f565b614fa5565b905082815260208101848484011115613ba557600080fd5b613bb084828561523c565b509392505050565b600081359050613bc781615b23565b92915050565b600082601f830112613bde57600080fd5b8135613bee8482602086016139de565b91505092915050565b600082601f830112613c0857600080fd5b8135613c18848260208601613a4a565b91505092915050565b600082601f830112613c3257600080fd5b8135613c42848260208601613ad0565b91505092915050565b600081359050613c5a81615b3a565b92915050565b600081359050613c6f81615b51565b92915050565b600081359050613c8481615b68565b92915050565b600081519050613c9981615b68565b92915050565b600082601f830112613cb057600080fd5b8135613cc0848260208601613b3c565b91505092915050565b600081519050613cd881615b7f565b92915050565b600082601f830112613cef57600080fd5b8135613cff848260208601613b7a565b91505092915050565b600081359050613d1781615b96565b92915050565b600081359050613d2c81615bad565b92915050565b600060208284031215613d4457600080fd5b6000613d5284828501613bb8565b91505092915050565b60008060408385031215613d6e57600080fd5b6000613d7c85828601613bb8565b9250506020613d8d85828601613bb8565b9150509250929050565b600080600080600060a08688031215613daf57600080fd5b6000613dbd88828901613bb8565b9550506020613dce88828901613bb8565b945050604086013567ffffffffffffffff811115613deb57600080fd5b613df788828901613c21565b935050606086013567ffffffffffffffff811115613e1457600080fd5b613e2088828901613c21565b925050608086013567ffffffffffffffff811115613e3d57600080fd5b613e4988828901613c9f565b9150509295509295909350565b600080600080600060a08688031215613e6e57600080fd5b6000613e7c88828901613bb8565b9550506020613e8d88828901613bb8565b9450506040613e9e88828901613d08565b9350506060613eaf88828901613d08565b925050608086013567ffffffffffffffff811115613ecc57600080fd5b613ed888828901613c9f565b9150509295509295909350565b600080600060608486031215613efa57600080fd5b6000613f0886828701613bb8565b935050602084013567ffffffffffffffff811115613f2557600080fd5b613f3186828701613bcd565b925050604084013567ffffffffffffffff811115613f4e57600080fd5b613f5a86828701613bf7565b9150509250925092565b60008060408385031215613f7757600080fd5b6000613f8585828601613bb8565b925050602083013567ffffffffffffffff811115613fa257600080fd5b613fae85828601613c21565b9150509250929050565b60008060008060808587031215613fce57600080fd5b6000613fdc87828801613bb8565b945050602085013567ffffffffffffffff811115613ff957600080fd5b61400587828801613c21565b935050604085013567ffffffffffffffff81111561402257600080fd5b61402e87828801613c21565b925050606085013567ffffffffffffffff81111561404b57600080fd5b61405787828801613c9f565b91505092959194509250565b6000806040838503121561407657600080fd5b600061408485828601613bb8565b925050602061409585828601613c4b565b9150509250929050565b600080600080600060a086880312156140b757600080fd5b60006140c588828901613bb8565b955050602086013567ffffffffffffffff8111156140e257600080fd5b6140ee88828901613c9f565b94505060406140ff88828901613c60565b935050606061411088828901613c60565b925050608061412188828901613d1d565b9150509295509295909350565b6000806040838503121561414157600080fd5b600061414f85828601613bb8565b925050602061416085828601613d08565b9150509250929050565b6000806000806080858703121561418057600080fd5b600061418e87828801613bb8565b945050602061419f87828801613d08565b93505060406141b087828801613d08565b925050606085013567ffffffffffffffff8111156141cd57600080fd5b6141d987828801613c9f565b91505092959194509250565b600080600080600060a086880312156141fd57600080fd5b600061420b88828901613bb8565b955050602061421c88828901613d08565b945050604061422d88828901613d08565b935050606086013567ffffffffffffffff81111561424a57600080fd5b61425688828901613cde565b925050608086013567ffffffffffffffff81111561427357600080fd5b61427f88828901613c9f565b9150509295509295909350565b6000806040838503121561429f57600080fd5b600083013567ffffffffffffffff8111156142b957600080fd5b6142c585828601613bcd565b925050602083013567ffffffffffffffff8111156142e257600080fd5b6142ee85828601613bf7565b9150509250929050565b6000806040838503121561430b57600080fd5b600083013567ffffffffffffffff81111561432557600080fd5b61433185828601613bcd565b925050602083013567ffffffffffffffff81111561434e57600080fd5b61435a85828601613c21565b9150509250929050565b60006020828403121561437657600080fd5b600082013567ffffffffffffffff81111561439057600080fd5b61439c84828501613c21565b91505092915050565b6000602082840312156143b757600080fd5b60006143c584828501613c75565b91505092915050565b6000602082840312156143e057600080fd5b60006143ee84828501613c8a565b91505092915050565b60006020828403121561440957600080fd5b600061441784828501613cc9565b91505092915050565b60006020828403121561443257600080fd5b600082013567ffffffffffffffff81111561444c57600080fd5b61445884828501613cde565b91505092915050565b60006020828403121561447357600080fd5b600061448184828501613d08565b91505092915050565b6000806040838503121561449d57600080fd5b60006144ab85828601613d08565b925050602083013567ffffffffffffffff8111156144c857600080fd5b6144d485828601613cde565b9150509250929050565b60006144ea8383614986565b60208301905092915050565b6144ff8161519f565b82525050565b61450e8161518d565b82525050565b6145256145208261518d565b61532a565b82525050565b6000614536826150c0565b61454081856150ee565b935061454b836150b0565b8060005b8381101561457c57815161456388826144de565b975061456e836150e1565b92505060018101905061454f565b5085935050505092915050565b614592816151b1565b82525050565b6145a1816151bd565b82525050565b6145b86145b3826151bd565b61533c565b82525050565b60006145c9826150cb565b6145d381856150ff565b93506145e381856020860161524b565b6145ec81615407565b840191505092915050565b6000614602826150cb565b61460c8185615110565b935061461c81856020860161524b565b80840191505092915050565b6000614633826150d6565b61463d818561511b565b935061464d81856020860161524b565b61465681615407565b840191505092915050565b600061466e60348361511b565b915061467982615432565b604082019050919050565b600061469160188361511b565b915061469c82615481565b602082019050919050565b60006146b460288361511b565b91506146bf826154aa565b604082019050919050565b60006146d7602f8361511b565b91506146e2826154f9565b604082019050919050565b60006146fa602b8361511b565b915061470582615548565b604082019050919050565b600061471d60268361511b565b915061472882615597565b604082019050919050565b6000614740601c8361511b565b915061474b826155e6565b602082019050919050565b600061476360028361512c565b915061476e8261560f565b600282019050919050565b600061478660298361511b565b915061479182615638565b604082019050919050565b60006147a960258361511b565b91506147b482615687565b604082019050919050565b60006147cc60258361511b565b91506147d7826156d6565b604082019050919050565b60006147ef60328361511b565b91506147fa82615725565b604082019050919050565b600061481260268361511b565b915061481d82615774565b604082019050919050565b6000614835602a8361511b565b9150614840826157c3565b604082019050919050565b600061485860178361511b565b915061486382615812565b602082019050919050565b600061487b60208361511b565b91506148868261583b565b602082019050919050565b600061489e60218361511b565b91506148a982615864565b604082019050919050565b60006148c1602c8361511b565b91506148cc826158b3565b604082019050919050565b60006148e460298361511b565b91506148ef82615902565b604082019050919050565b600061490760298361511b565b915061491282615951565b604082019050919050565b600061492a60288361511b565b9150614935826159a0565b604082019050919050565b600061494d60218361511b565b9150614958826159ef565b604082019050919050565b600061497060318361511b565b915061497b82615a3e565b604082019050919050565b61498f81615225565b82525050565b61499e81615225565b82525050565b6149ad8161522f565b82525050565b60006149bf82846145f7565b915081905092915050565b60006149d682856145f7565b91506149e28284614514565b6014820191508190509392505050565b60006149fd82614756565b9150614a0982856145a7565b602082019150614a1982846145a7565b6020820191508190509392505050565b6000602082019050614a3e6000830184614505565b92915050565b6000606082019050614a596000830186614505565b614a6660208301856144f6565b8181036040830152614a7881846145be565b9050949350505050565b600060a082019050614a976000830188614505565b614aa46020830187614505565b8181036040830152614ab6818661452b565b90508181036060830152614aca818561452b565b90508181036080830152614ade81846145be565b90509695505050505050565b600060a082019050614aff6000830188614505565b614b0c6020830187614505565b614b196040830186614995565b614b266060830185614995565b8181036080830152614b3881846145be565b90509695505050505050565b60006020820190508181036000830152614b5e818461452b565b905092915050565b60006040820190508181036000830152614b80818561452b565b90508181036020830152614b94818461452b565b90509392505050565b6000602082019050614bb26000830184614589565b92915050565b6000602082019050614bcd6000830184614598565b92915050565b6000608082019050614be86000830187614598565b614bf56020830186614995565b614c026040830185614505565b614c0f6060830184614598565b95945050505050565b6000608082019050614c2d6000830187614598565b614c3a60208301866149a4565b614c476040830185614598565b614c546060830184614598565b95945050505050565b60006020820190508181036000830152614c7781846145be565b905092915050565b60006020820190508181036000830152614c998184614628565b905092915050565b60006020820190508181036000830152614cba81614661565b9050919050565b60006020820190508181036000830152614cda81614684565b9050919050565b60006020820190508181036000830152614cfa816146a7565b9050919050565b60006020820190508181036000830152614d1a816146ca565b9050919050565b60006020820190508181036000830152614d3a816146ed565b9050919050565b60006020820190508181036000830152614d5a81614710565b9050919050565b60006020820190508181036000830152614d7a81614733565b9050919050565b60006020820190508181036000830152614d9a81614779565b9050919050565b60006020820190508181036000830152614dba8161479c565b9050919050565b60006020820190508181036000830152614dda816147bf565b9050919050565b60006020820190508181036000830152614dfa816147e2565b9050919050565b60006020820190508181036000830152614e1a81614805565b9050919050565b60006020820190508181036000830152614e3a81614828565b9050919050565b60006020820190508181036000830152614e5a8161484b565b9050919050565b60006020820190508181036000830152614e7a8161486e565b9050919050565b60006020820190508181036000830152614e9a81614891565b9050919050565b60006020820190508181036000830152614eba816148b4565b9050919050565b60006020820190508181036000830152614eda816148d7565b9050919050565b60006020820190508181036000830152614efa816148fa565b9050919050565b60006020820190508181036000830152614f1a8161491d565b9050919050565b60006020820190508181036000830152614f3a81614940565b9050919050565b60006020820190508181036000830152614f5a81614963565b9050919050565b6000602082019050614f766000830184614995565b92915050565b6000604082019050614f916000830185614995565b614f9e6020830184614995565b9392505050565b6000614faf614fc0565b9050614fbb82826152b0565b919050565b6000604051905090565b600067ffffffffffffffff821115614fe557614fe46153b6565b5b602082029050602081019050919050565b600067ffffffffffffffff821115615011576150106153b6565b5b602082029050602081019050919050565b600067ffffffffffffffff82111561503d5761503c6153b6565b5b602082029050602081019050919050565b600067ffffffffffffffff821115615069576150686153b6565b5b61507282615407565b9050602081019050919050565b600067ffffffffffffffff82111561509a576150996153b6565b5b6150a382615407565b9050602081019050919050565b6000819050602082019050919050565b600081519050919050565b600081519050919050565b600081519050919050565b6000602082019050919050565b600082825260208201905092915050565b600082825260208201905092915050565b600081905092915050565b600082825260208201905092915050565b600081905092915050565b600061514282615225565b915061514d83615225565b9250827fffffffffffffffffffffffffffffffffffffffffffffffffffffffffffffffff0382111561518257615181615358565b5b828201905092915050565b600061519882615205565b9050919050565b60006151aa82615205565b9050919050565b60008115159050919050565b6000819050919050565b60007fffffffff0000000000000000000000000000000000000000000000000000000082169050919050565b60006151fe8261518d565b9050919050565b600073ffffffffffffffffffffffffffffffffffffffff82169050919050565b6000819050919050565b600060ff82169050919050565b82818337600083830152505050565b60005b8381101561526957808201518184015260208101905061524e565b83811115615278576000848401525b50505050565b6000600282049050600182168061529657607f821691505b602082108114156152aa576152a9615387565b5b50919050565b6152b982615407565b810181811067ffffffffffffffff821117156152d8576152d76153b6565b5b80604052505050565b60006152ec82615225565b91507fffffffffffffffffffffffffffffffffffffffffffffffffffffffffffffffff82141561531f5761531e615358565b5b600182019050919050565b600061533582615346565b9050919050565b6000819050919050565b600061535182615418565b9050919050565b7f4e487b7100000000000000000000000000000000000000000000000000000000600052601160045260246000fd5b7f4e487b7100000000000000000000000000000000000000000000000000000000600052602260045260246000fd5b7f4e487b7100000000000000000000000000000000000000000000000000000000600052604160045260246000fd5b600060033d11156154045760046000803e615401600051615425565b90505b90565b6000601f19601f8301169050919050565b60008160601b9050919050565b60008160e01c9050919050565b7f455243313135353a207472616e7366657220746f206e6f6e204552433131353560008201527f526563656976657220696d706c656d656e746572000000000000000000000000602082015250565b7f746f6b656e205f696420616c7265616479206578697374730000000000000000600082015250565b7f455243313135353a204552433131353552656365697665722072656a6563746560008201527f6420746f6b656e73000000000000000000000000000000000000000000000000602082015250565b7f455243313135355472616461626c652362617463684d696e743a204f4e4c595f60008201527f43524541544f525f414c4c4f5745440000000000000000000000000000000000602082015250565b7f455243313135353a2062616c616e636520717565727920666f7220746865207a60008201527f65726f2061646472657373000000000000000000000000000000000000000000602082015250565b7f4f776e61626c653a206e6577206f776e657220697320746865207a65726f206160008201527f6464726573730000000000000000000000000000000000000000000000000000602082015250565b7f46756e6374696f6e2063616c6c206e6f74207375636365737366756c00000000600082015250565b7f1901000000000000000000000000000000000000000000000000000000000000600082015250565b7f455243313135353a2063616c6c6572206973206e6f74206f776e6572206e6f7260008201527f20617070726f7665640000000000000000000000000000000000000000000000602082015250565b7f4e61746976654d6574615472616e73616374696f6e3a20494e56414c49445f5360008201527f49474e4552000000000000000000000000000000000000000000000000000000602082015250565b7f455243313135353a207472616e7366657220746f20746865207a65726f20616460008201527f6472657373000000000000000000000000000000000000000000000000000000602082015250565b7f455243313135353a207472616e736665722063616c6c6572206973206e6f742060008201527f6f776e6572206e6f7220617070726f7665640000000000000000000000000000602082015250565b7f455243313135355472616461626c65237572693a204e4f4e4558495354454e5460008201527f5f544f4b454e0000000000000000000000000000000000000000000000000000602082015250565b7f455243313135353a20696e73756666696369656e742062616c616e636520666f60008201527f72207472616e7366657200000000000000000000000000000000000000000000602082015250565b7f746f6b656e20696420646f6573206e6f74206578697374000000000000000000600082015250565b7f4f776e61626c653a2063616c6c6572206973206e6f7420746865206f776e6572600082015250565b7f5369676e657220616e64207369676e617475726520646f206e6f74206d61746360008201527f6800000000000000000000000000000000000000000000000000000000000000602082015250565b7f455243313135355472616461626c652373657443726561746f723a20494e564160008201527f4c49445f414444524553532e0000000000000000000000000000000000000000602082015250565b7f455243313135353a2073657474696e6720617070726f76616c2073746174757360008201527f20666f722073656c660000000000000000000000000000000000000000000000602082015250565b7f455243313135353a206163636f756e747320616e6420696473206c656e67746860008201527f206d69736d617463680000000000000000000000000000000000000000000000602082015250565b7f455243313135353a2069647320616e6420616d6f756e7473206c656e6774682060008201527f6d69736d61746368000000000000000000000000000000000000000000000000602082015250565b7f455243313135353a206d696e7420746f20746865207a65726f2061646472657360008201527f7300000000000000000000000000000000000000000000000000000000000000602082015250565b7f455243313135355472616461626c652363726561746f724f6e6c793a204f4e4c60008201527f595f43524541544f525f414c4c4f574544000000000000000000000000000000602082015250565b600060443d1015615a9d57615b20565b615aa5614fc0565b60043d036004823e80513d602482011167ffffffffffffffff82111715615acd575050615b20565b808201805167ffffffffffffffff811115615aeb5750505050615b20565b80602083010160043d038501811115615b08575050505050615b20565b615b17826020018501866152b0565b82955050505050505b90565b615b2c8161518d565b8114615b3757600080fd5b50565b615b43816151b1565b8114615b4e57600080fd5b50565b615b5a816151bd565b8114615b6557600080fd5b50565b615b71816151c7565b8114615b7c57600080fd5b50565b615b88816151f3565b8114615b9357600080fd5b50565b615b9f81615225565b8114615baa57600080fd5b50565b615bb68161522f565b8114615bc157600080fd5b5056fe4d6574615472616e73616374696f6e2875696e74323536206e6f6e63652c616464726573732066726f6d2c62797465732066756e6374696f6e5369676e617475726529a2646970667358221220ce4dd8fe7f2da868b1adcdb416a3b813de7c7282d35f8d34f95690862d41a72964736f6c63430008040033454950373132446f6d61696e28737472696e67206e616d652c737472696e672076657273696f6e2c6164647265737320766572696679696e67436f6e74726163742c627974657333322073616c7429",
  "devdoc": {
    "kind": "dev",
    "methods": {
      "balanceOf(address,uint256)": {
        "details": "See {IERC1155-balanceOf}. Requirements: - `account` cannot be the zero address."
      },
      "balanceOfBatch(address[],uint256[])": {
        "details": "See {IERC1155-balanceOfBatch}. Requirements: - `accounts` and `ids` must have the same length."
      },
      "batchMint(address,uint256[],uint256[],bytes)": {
        "details": "Mint tokens for each id in _ids",
        "params": {
          "_data": "Data to pass if receiver is contract",
          "_ids": "Array of ids to mint",
          "_quantities": "Array of amounts of tokens to mint per id",
          "_to": "The address to mint tokens to"
        }
      },
      "create(address,uint256,uint256,string,bytes)": {
        "details": "Creates a new token type and assigns _initialSupply to an address NOTE: remove onlyOwner if you want third parties to create new tokens on       your contract (which may change your IDs) NOTE: The token id must be passed. This allows lazy creation of tokens or       creating NFTs by setting the id's high bits with the method       described in ERC1155 or to use ids representing values other than       successive small integers. If you wish to create ids as successive       small integers you can either subclass this class to count onchain       or maintain the offchain cache of identifiers recommended in       ERC1155 and calculate successive ids from that.",
        "params": {
          "_data": "Data to pass if receiver is contract",
          "_id": "The id of the token to create (must not currenty exist).",
          "_initialOwner": "address of the first owner of the token",
          "_initialSupply": "amount to supply the first owner",
          "_uri": "Optional URI for this token type"
        },
        "returns": {
          "_0": "The newly created token ID"
        }
      },
      "mint(address,uint256,uint256,bytes)": {
        "details": "Mints some amount of tokens to an address",
        "params": {
          "_data": "Data to pass if receiver is contract",
          "_id": "Token ID to mint",
          "_quantity": "Amount of tokens to mint",
          "_to": "Address of the future owner of the token"
        }
      },
      "owner()": {
        "details": "Returns the address of the current owner."
      },
      "renounceOwnership()": {
        "details": "Leaves the contract without owner. It will not be possible to call `onlyOwner` functions anymore. Can only be called by the current owner. NOTE: Renouncing ownership will leave the contract without an owner, thereby removing any functionality that is only available to the owner."
      },
      "safeBatchTransferFrom(address,address,uint256[],uint256[],bytes)": {
        "details": "See {IERC1155-safeBatchTransferFrom}."
      },
      "safeTransferFrom(address,address,uint256,uint256,bytes)": {
        "details": "See {IERC1155-safeTransferFrom}."
      },
      "setApprovalForAll(address,bool)": {
        "details": "See {IERC1155-setApprovalForAll}."
      },
      "setCreator(address,uint256[])": {
        "details": "Change the creator address for given tokens",
        "params": {
          "_ids": "Array of Token IDs to change creator",
          "_to": "Address of the new creator"
        }
      },
      "setCustomURI(uint256,string)": {
        "details": "Will update the base URI for the token",
        "params": {
          "_newURI": "New URI for the token.",
          "_tokenId": "The token to update. _msgSender() must be its creator."
        }
      },
      "setURI(string)": {
        "details": "Sets a new URI for all token types, by relying on the token type ID substitution mechanism https://eips.ethereum.org/EIPS/eip-1155#metadata[defined in the EIP].",
        "params": {
          "_newURI": "New URI for all tokens"
        }
      },
      "supportsInterface(bytes4)": {
        "details": "See {IERC165-supportsInterface}."
      },
      "totalSupply(uint256)": {
        "details": "Returns the total quantity for a token ID",
        "params": {
          "_id": "uint256 ID of the token to query"
        },
        "returns": {
          "_0": "amount of token in existence"
        }
      },
      "transferOwnership(address)": {
        "details": "Transfers ownership of the contract to a new account (`newOwner`). Can only be called by the current owner."
      }
    },
    "title": "NFT NFT - a contract for non-fungible tokens using ERC 1155 for batch actions",
    "version": 1
  },
  "userdoc": {
    "kind": "user",
    "methods": {
      "batchMakePermanent(uint256[])": {
        "notice": "Mark all tokens permanent in batch"
      },
      "batchTransferToMany(address,address[],uint256[][])": {
        "notice": "Allows contract owner to mass transfer to many recipients in a single transaction"
      },
      "isApprovedForAll(address,address)": {
        "notice": "Override isApprovedForAll to whitelist user's OpenSea proxy accounts to enable gas-free listings."
      },
      "makePermanent(uint256)": {
        "notice": "Mark a single token as permanent in batch"
      }
    },
    "version": 1
  },
  "storageLayout": {
    "storage": [
      {
        "astId": 130,
        "contract": "contracts/NFT.sol:NFT",
        "label": "_balances",
        "offset": 0,
        "slot": "0",
        "type": "t_mapping(t_uint256,t_mapping(t_address,t_uint256))"
      },
      {
        "astId": 136,
        "contract": "contracts/NFT.sol:NFT",
        "label": "_operatorApprovals",
        "offset": 0,
        "slot": "1",
        "type": "t_mapping(t_address,t_mapping(t_address,t_bool))"
      },
      {
        "astId": 138,
        "contract": "contracts/NFT.sol:NFT",
        "label": "_uri",
        "offset": 0,
        "slot": "2",
        "type": "t_string_storage"
      },
      {
        "astId": 3211,
        "contract": "contracts/NFT.sol:NFT",
        "label": "inited",
        "offset": 0,
        "slot": "3",
        "type": "t_bool"
      },
      {
        "astId": 3118,
        "contract": "contracts/NFT.sol:NFT",
        "label": "domainSeperator",
        "offset": 0,
        "slot": "4",
        "type": "t_bytes32"
      },
      {
        "astId": 3257,
        "contract": "contracts/NFT.sol:NFT",
        "label": "nonces",
        "offset": 0,
        "slot": "5",
        "type": "t_mapping(t_address,t_uint256)"
      },
      {
        "astId": 7,
        "contract": "contracts/NFT.sol:NFT",
        "label": "_owner",
        "offset": 0,
        "slot": "6",
        "type": "t_address"
      },
      {
        "astId": 2280,
        "contract": "contracts/NFT.sol:NFT",
        "label": "proxyRegistryAddress",
        "offset": 0,
        "slot": "7",
        "type": "t_address"
      },
      {
        "astId": 2284,
        "contract": "contracts/NFT.sol:NFT",
        "label": "creators",
        "offset": 0,
        "slot": "8",
        "type": "t_mapping(t_uint256,t_address)"
      },
      {
        "astId": 2288,
        "contract": "contracts/NFT.sol:NFT",
        "label": "tokenSupply",
        "offset": 0,
        "slot": "9",
        "type": "t_mapping(t_uint256,t_uint256)"
      },
      {
        "astId": 2292,
        "contract": "contracts/NFT.sol:NFT",
        "label": "customUri",
        "offset": 0,
        "slot": "10",
        "type": "t_mapping(t_uint256,t_string_storage)"
      },
      {
        "astId": 2294,
        "contract": "contracts/NFT.sol:NFT",
        "label": "name",
        "offset": 0,
        "slot": "11",
        "type": "t_string_storage"
      },
      {
        "astId": 2296,
        "contract": "contracts/NFT.sol:NFT",
        "label": "symbol",
        "offset": 0,
        "slot": "12",
        "type": "t_string_storage"
      },
      {
        "astId": 2774,
        "contract": "contracts/NFT.sol:NFT",
        "label": "_contractURI",
        "offset": 0,
        "slot": "13",
        "type": "t_string_storage"
      }
    ],
    "types": {
      "t_address": {
        "encoding": "inplace",
        "label": "address",
        "numberOfBytes": "20"
      },
      "t_bool": {
        "encoding": "inplace",
        "label": "bool",
        "numberOfBytes": "1"
      },
      "t_bytes32": {
        "encoding": "inplace",
        "label": "bytes32",
        "numberOfBytes": "32"
      },
      "t_mapping(t_address,t_bool)": {
        "encoding": "mapping",
        "key": "t_address",
        "label": "mapping(address => bool)",
        "numberOfBytes": "32",
        "value": "t_bool"
      },
      "t_mapping(t_address,t_mapping(t_address,t_bool))": {
        "encoding": "mapping",
        "key": "t_address",
        "label": "mapping(address => mapping(address => bool))",
        "numberOfBytes": "32",
        "value": "t_mapping(t_address,t_bool)"
      },
      "t_mapping(t_address,t_uint256)": {
        "encoding": "mapping",
        "key": "t_address",
        "label": "mapping(address => uint256)",
        "numberOfBytes": "32",
        "value": "t_uint256"
      },
      "t_mapping(t_uint256,t_address)": {
        "encoding": "mapping",
        "key": "t_uint256",
        "label": "mapping(uint256 => address)",
        "numberOfBytes": "32",
        "value": "t_address"
      },
      "t_mapping(t_uint256,t_mapping(t_address,t_uint256))": {
        "encoding": "mapping",
        "key": "t_uint256",
        "label": "mapping(uint256 => mapping(address => uint256))",
        "numberOfBytes": "32",
        "value": "t_mapping(t_address,t_uint256)"
      },
      "t_mapping(t_uint256,t_string_storage)": {
        "encoding": "mapping",
        "key": "t_uint256",
        "label": "mapping(uint256 => string)",
        "numberOfBytes": "32",
        "value": "t_string_storage"
      },
      "t_mapping(t_uint256,t_uint256)": {
        "encoding": "mapping",
        "key": "t_uint256",
        "label": "mapping(uint256 => uint256)",
        "numberOfBytes": "32",
        "value": "t_uint256"
      },
      "t_string_storage": {
        "encoding": "bytes",
        "label": "string",
        "numberOfBytes": "32"
      },
      "t_uint256": {
        "encoding": "inplace",
        "label": "uint256",
        "numberOfBytes": "32"
      }
    }
  }
}