{
  "address": "0xf4F00bd3A62bbd7fcAd2B6409F22ddf1E0330f88",
  "abi": [
    {
      "inputs": [
        {
          "internalType": "address",
          "name": "_proxyRegistryAddress",
          "type": "address"
        },
        {
          "internalType": "string",
          "name": "name",
          "type": "string"
        },
        {
          "internalType": "string",
          "name": "symbol",
          "type": "string"
        },
        {
          "internalType": "string",
          "name": "cURI",
          "type": "string"
        },
        {
          "internalType": "string",
          "name": "tokenURI",
          "type": "string"
        }
      ],
      "stateMutability": "nonpayable",
      "type": "constructor"
    },
    {
      "anonymous": false,
      "inputs": [
        {
          "indexed": true,
          "internalType": "address",
          "name": "account",
          "type": "address"
        },
        {
          "indexed": true,
          "internalType": "address",
          "name": "operator",
          "type": "address"
        },
        {
          "indexed": false,
          "internalType": "bool",
          "name": "approved",
          "type": "bool"
        }
      ],
      "name": "ApprovalForAll",
      "type": "event"
    },
    {
      "anonymous": false,
      "inputs": [
        {
          "indexed": false,
          "internalType": "address",
          "name": "userAddress",
          "type": "address"
        },
        {
          "indexed": false,
          "internalType": "address payable",
          "name": "relayerAddress",
          "type": "address"
        },
        {
          "indexed": false,
          "internalType": "bytes",
          "name": "functionSignature",
          "type": "bytes"
        }
      ],
      "name": "MetaTransactionExecuted",
      "type": "event"
    },
    {
      "anonymous": false,
      "inputs": [
        {
          "indexed": true,
          "internalType": "address",
          "name": "previousOwner",
          "type": "address"
        },
        {
          "indexed": true,
          "internalType": "address",
          "name": "newOwner",
          "type": "address"
        }
      ],
      "name": "OwnershipTransferred",
      "type": "event"
    },
    {
      "anonymous": false,
      "inputs": [
        {
          "indexed": false,
          "internalType": "string",
          "name": "_value",
          "type": "string"
        },
        {
          "indexed": true,
          "internalType": "uint256",
          "name": "_id",
          "type": "uint256"
        }
      ],
      "name": "PermanentURI",
      "type": "event"
    },
    {
      "anonymous": false,
      "inputs": [
        {
          "indexed": true,
          "internalType": "address",
          "name": "operator",
          "type": "address"
        },
        {
          "indexed": true,
          "internalType": "address",
          "name": "from",
          "type": "address"
        },
        {
          "indexed": true,
          "internalType": "address",
          "name": "to",
          "type": "address"
        },
        {
          "indexed": false,
          "internalType": "uint256[]",
          "name": "ids",
          "type": "uint256[]"
        },
        {
          "indexed": false,
          "internalType": "uint256[]",
          "name": "values",
          "type": "uint256[]"
        }
      ],
      "name": "TransferBatch",
      "type": "event"
    },
    {
      "anonymous": false,
      "inputs": [
        {
          "indexed": true,
          "internalType": "address",
          "name": "operator",
          "type": "address"
        },
        {
          "indexed": true,
          "internalType": "address",
          "name": "from",
          "type": "address"
        },
        {
          "indexed": true,
          "internalType": "address",
          "name": "to",
          "type": "address"
        },
        {
          "indexed": false,
          "internalType": "uint256",
          "name": "id",
          "type": "uint256"
        },
        {
          "indexed": false,
          "internalType": "uint256",
          "name": "value",
          "type": "uint256"
        }
      ],
      "name": "TransferSingle",
      "type": "event"
    },
    {
      "anonymous": false,
      "inputs": [
        {
          "indexed": false,
          "internalType": "string",
          "name": "value",
          "type": "string"
        },
        {
          "indexed": true,
          "internalType": "uint256",
          "name": "id",
          "type": "uint256"
        }
      ],
      "name": "URI",
      "type": "event"
    },
    {
      "inputs": [],
      "name": "ERC712_VERSION",
      "outputs": [
        {
          "internalType": "string",
          "name": "",
          "type": "string"
        }
      ],
      "stateMutability": "view",
      "type": "function"
    },
    {
      "inputs": [],
      "name": "MAX_TOKEN_COUNT",
      "outputs": [
        {
          "internalType": "uint256",
          "name": "",
          "type": "uint256"
        }
      ],
      "stateMutability": "view",
      "type": "function"
    },
    {
      "inputs": [],
      "name": "_price",
      "outputs": [
        {
          "internalType": "uint256",
          "name": "",
          "type": "uint256"
        }
      ],
      "stateMutability": "view",
      "type": "function"
    },
    {
      "inputs": [
        {
          "internalType": "address",
          "name": "account",
          "type": "address"
        },
        {
          "internalType": "uint256",
          "name": "id",
          "type": "uint256"
        }
      ],
      "name": "balanceOf",
      "outputs": [
        {
          "internalType": "uint256",
          "name": "",
          "type": "uint256"
        }
      ],
      "stateMutability": "view",
      "type": "function"
    },
    {
      "inputs": [
        {
          "internalType": "address[]",
          "name": "accounts",
          "type": "address[]"
        },
        {
          "internalType": "uint256[]",
          "name": "ids",
          "type": "uint256[]"
        }
      ],
      "name": "balanceOfBatch",
      "outputs": [
        {
          "internalType": "uint256[]",
          "name": "",
          "type": "uint256[]"
        }
      ],
      "stateMutability": "view",
      "type": "function"
    },
    {
      "inputs": [
        {
          "internalType": "uint256[]",
          "name": "ids",
          "type": "uint256[]"
        }
      ],
      "name": "batchMakePermanent",
      "outputs": [],
      "stateMutability": "nonpayable",
      "type": "function"
    },
    {
      "inputs": [
        {
          "internalType": "address[]",
          "name": "initialOwners",
          "type": "address[]"
        },
        {
          "internalType": "uint256[][]",
          "name": "idsPerOwner",
          "type": "uint256[][]"
        },
        {
          "internalType": "string",
          "name": "uri",
          "type": "string"
        },
        {
          "internalType": "bytes",
          "name": "data",
          "type": "bytes"
        }
      ],
      "name": "batchMint",
      "outputs": [],
      "stateMutability": "nonpayable",
      "type": "function"
    },
    {
      "inputs": [
        {
          "internalType": "address",
          "name": "from",
          "type": "address"
        },
        {
          "internalType": "address[]",
          "name": "recipients",
          "type": "address[]"
        },
        {
          "internalType": "uint256[][]",
          "name": "idsPerRecipient",
          "type": "uint256[][]"
        }
      ],
      "name": "batchTransferToMany",
      "outputs": [],
      "stateMutability": "nonpayable",
      "type": "function"
    },
    {
      "inputs": [],
      "name": "contractURI",
      "outputs": [
        {
          "internalType": "string",
          "name": "",
          "type": "string"
        }
      ],
      "stateMutability": "view",
      "type": "function"
    },
    {
      "inputs": [
        {
          "internalType": "address",
          "name": "userAddress",
          "type": "address"
        },
        {
          "internalType": "bytes",
          "name": "functionSignature",
          "type": "bytes"
        },
        {
          "internalType": "bytes32",
          "name": "sigR",
          "type": "bytes32"
        },
        {
          "internalType": "bytes32",
          "name": "sigS",
          "type": "bytes32"
        },
        {
          "internalType": "uint8",
          "name": "sigV",
          "type": "uint8"
        }
      ],
      "name": "executeMetaTransaction",
      "outputs": [
        {
          "internalType": "bytes",
          "name": "",
          "type": "bytes"
        }
      ],
      "stateMutability": "payable",
      "type": "function"
    },
    {
      "inputs": [
        {
          "internalType": "uint256",
          "name": "_id",
          "type": "uint256"
        }
      ],
      "name": "exists",
      "outputs": [
        {
          "internalType": "bool",
          "name": "",
          "type": "bool"
        }
      ],
      "stateMutability": "view",
      "type": "function"
    },
    {
      "inputs": [],
      "name": "getChainId",
      "outputs": [
        {
          "internalType": "uint256",
          "name": "",
          "type": "uint256"
        }
      ],
      "stateMutability": "view",
      "type": "function"
    },
    {
      "inputs": [],
      "name": "getDomainSeperator",
      "outputs": [
        {
          "internalType": "bytes32",
          "name": "",
          "type": "bytes32"
        }
      ],
      "stateMutability": "view",
      "type": "function"
    },
    {
      "inputs": [
        {
          "internalType": "address",
          "name": "user",
          "type": "address"
        }
      ],
      "name": "getNonce",
      "outputs": [
        {
          "internalType": "uint256",
          "name": "nonce",
          "type": "uint256"
        }
      ],
      "stateMutability": "view",
      "type": "function"
    },
    {
      "inputs": [
        {
          "internalType": "address",
          "name": "_owner",
          "type": "address"
        },
        {
          "internalType": "address",
          "name": "_operator",
          "type": "address"
        }
      ],
      "name": "isApprovedForAll",
      "outputs": [
        {
          "internalType": "bool",
          "name": "isOperator",
          "type": "bool"
        }
      ],
      "stateMutability": "view",
      "type": "function"
    },
    {
      "inputs": [
        {
          "internalType": "uint256",
          "name": "id",
          "type": "uint256"
        }
      ],
      "name": "makePermanent",
      "outputs": [],
      "stateMutability": "nonpayable",
      "type": "function"
    },
    {
      "inputs": [
        {
          "internalType": "address",
          "name": "initialOwner",
          "type": "address"
        },
        {
          "internalType": "uint256",
          "name": "id",
          "type": "uint256"
        },
        {
          "internalType": "string",
          "name": "uri",
          "type": "string"
        },
        {
          "internalType": "bytes",
          "name": "data",
          "type": "bytes"
        }
      ],
      "name": "mint",
      "outputs": [
        {
          "internalType": "uint256",
          "name": "",
          "type": "uint256"
        }
      ],
      "stateMutability": "nonpayable",
      "type": "function"
    },
    {
      "inputs": [],
      "name": "name",
      "outputs": [
        {
          "internalType": "string",
          "name": "",
          "type": "string"
        }
      ],
      "stateMutability": "view",
      "type": "function"
    },
    {
      "inputs": [],
      "name": "owner",
      "outputs": [
        {
          "internalType": "address",
          "name": "",
          "type": "address"
        }
      ],
      "stateMutability": "view",
      "type": "function"
    },
    {
      "inputs": [
        {
          "internalType": "uint256",
          "name": "count",
          "type": "uint256"
        }
      ],
      "name": "publicMint",
      "outputs": [],
      "stateMutability": "payable",
      "type": "function"
    },
    {
      "inputs": [],
      "name": "renounceOwnership",
      "outputs": [],
      "stateMutability": "nonpayable",
      "type": "function"
    },
    {
      "inputs": [
        {
          "internalType": "address",
          "name": "from",
          "type": "address"
        },
        {
          "internalType": "address",
          "name": "to",
          "type": "address"
        },
        {
          "internalType": "uint256[]",
          "name": "ids",
          "type": "uint256[]"
        },
        {
          "internalType": "uint256[]",
          "name": "amounts",
          "type": "uint256[]"
        },
        {
          "internalType": "bytes",
          "name": "data",
          "type": "bytes"
        }
      ],
      "name": "safeBatchTransferFrom",
      "outputs": [],
      "stateMutability": "nonpayable",
      "type": "function"
    },
    {
      "inputs": [
        {
          "internalType": "address",
          "name": "from",
          "type": "address"
        },
        {
          "internalType": "address",
          "name": "to",
          "type": "address"
        },
        {
          "internalType": "uint256",
          "name": "id",
          "type": "uint256"
        },
        {
          "internalType": "uint256",
          "name": "amount",
          "type": "uint256"
        },
        {
          "internalType": "bytes",
          "name": "data",
          "type": "bytes"
        }
      ],
      "name": "safeTransferFrom",
      "outputs": [],
      "stateMutability": "nonpayable",
      "type": "function"
    },
    {
      "inputs": [
        {
          "internalType": "address",
          "name": "operator",
          "type": "address"
        },
        {
          "internalType": "bool",
          "name": "approved",
          "type": "bool"
        }
      ],
      "name": "setApprovalForAll",
      "outputs": [],
      "stateMutability": "nonpayable",
      "type": "function"
    },
    {
      "inputs": [
        {
          "internalType": "string",
          "name": "newuri",
          "type": "string"
        }
      ],
      "name": "setContractURI",
      "outputs": [],
      "stateMutability": "nonpayable",
      "type": "function"
    },
    {
      "inputs": [
        {
          "internalType": "uint256",
          "name": "_tokenId",
          "type": "uint256"
        },
        {
          "internalType": "string",
          "name": "_newURI",
          "type": "string"
        }
      ],
      "name": "setCustomURI",
      "outputs": [],
      "stateMutability": "nonpayable",
      "type": "function"
    },
    {
      "inputs": [
        {
          "internalType": "string",
          "name": "_newURI",
          "type": "string"
        }
      ],
      "name": "setURI",
      "outputs": [],
      "stateMutability": "nonpayable",
      "type": "function"
    },
    {
      "inputs": [
        {
          "internalType": "bytes4",
          "name": "interfaceId",
          "type": "bytes4"
        }
      ],
      "name": "supportsInterface",
      "outputs": [
        {
          "internalType": "bool",
          "name": "",
          "type": "bool"
        }
      ],
      "stateMutability": "view",
      "type": "function"
    },
    {
      "inputs": [],
      "name": "symbol",
      "outputs": [
        {
          "internalType": "string",
          "name": "",
          "type": "string"
        }
      ],
      "stateMutability": "view",
      "type": "function"
    },
    {
      "inputs": [
        {
          "internalType": "uint256",
          "name": "",
          "type": "uint256"
        }
      ],
      "name": "tokenSupply",
      "outputs": [
        {
          "internalType": "uint256",
          "name": "",
          "type": "uint256"
        }
      ],
      "stateMutability": "view",
      "type": "function"
    },
    {
      "inputs": [
        {
          "internalType": "uint256",
          "name": "_id",
          "type": "uint256"
        }
      ],
      "name": "totalSupply",
      "outputs": [
        {
          "internalType": "uint256",
          "name": "",
          "type": "uint256"
        }
      ],
      "stateMutability": "view",
      "type": "function"
    },
    {
      "inputs": [
        {
          "internalType": "address",
          "name": "newOwner",
          "type": "address"
        }
      ],
      "name": "transferOwnership",
      "outputs": [],
      "stateMutability": "nonpayable",
      "type": "function"
    },
    {
      "inputs": [
        {
          "internalType": "uint256",
          "name": "_id",
          "type": "uint256"
        }
      ],
      "name": "uri",
      "outputs": [
        {
          "internalType": "string",
          "name": "",
          "type": "string"
        }
      ],
      "stateMutability": "view",
      "type": "function"
    },
    {
      "inputs": [
        {
          "internalType": "address payable",
          "name": "payee",
          "type": "address"
        }
      ],
      "name": "withdraw",
      "outputs": [],
      "stateMutability": "nonpayable",
      "type": "function"
    }
  ],
  "transactionHash": "0x345533d68484f11faf3bddc396f38ed75a5d99014e8e86d2e825d2990735fb5c",
  "args": [
    "0xf57b2c51ded3a29e6891aba85459d600256cf317",
    "Gangen Alumni",
    "GANGA",
    "https://gangenalumni.s3.us-east-2.amazonaws.com/rinkeby/data/contract.json",
    "https://gangenalumni.s3.us-east-2.amazonaws.com/rinkeby/data/{id}.json"
  ],
  "solcInputHash": "0ce7e083e912256994ab24422cc598c5",
  "bytecode": "0x60806040526000600360006101000a81548160ff02191690831515021790555067016345785d8a0000600d553480156200003857600080fd5b50604051620069dc380380620069dc83398181016040528101906200005e9190620005fb565b83838287816200007481620001d360201b60201c565b506200009562000089620001ef60201b60201c565b6200020b60201b60201c565b83600a9080519060200190620000ad929190620004c2565b5082600b9080519060200190620000c6929190620004c2565b5080600760006101000a81548173ffffffffffffffffffffffffffffffffffffffff021916908373ffffffffffffffffffffffffffffffffffffffff160217905550620001ab600a80546200011b906200088d565b80601f016020809104026020016040519081016040528092919081815260200182805462000149906200088d565b80156200019a5780601f106200016e576101008083540402835291602001916200019a565b820191906000526020600020905b8154815290600101906020018083116200017c57829003601f168201915b5050505050620002d160201b60201c565b5050505081600c9080519060200190620001c7929190620004c2565b505050505050620009ab565b8060029080519060200190620001eb929190620004c2565b5050565b6000620002066200035360201b620026391760201c565b905090565b6000600660009054906101000a900473ffffffffffffffffffffffffffffffffffffffff16905081600660006101000a81548173ffffffffffffffffffffffffffffffffffffffff021916908373ffffffffffffffffffffffffffffffffffffffff1602179055508173ffffffffffffffffffffffffffffffffffffffff168173ffffffffffffffffffffffffffffffffffffffff167f8be0079c531659141344cd1fd0a4f28419497f9722a3daafe3b4186f6b6457e060405160405180910390a35050565b600360009054906101000a900460ff161562000324576040517f08c379a00000000000000000000000000000000000000000000000000000000081526004016200031b9062000787565b60405180910390fd5b62000335816200040660201b60201c565b6001600360006101000a81548160ff02191690831515021790555050565b60003073ffffffffffffffffffffffffffffffffffffffff163373ffffffffffffffffffffffffffffffffffffffff161415620003ff57600080368080601f016020809104026020016040519081016040528093929190818152602001838380828437600081840152601f19601f820116905080830192505050505050509050600080369050905073ffffffffffffffffffffffffffffffffffffffff81830151169250505062000403565b3390505b90565b6040518060800160405280604f81526020016200698d604f91398051906020012081805190602001206040518060400160405280600181526020017f310000000000000000000000000000000000000000000000000000000000000081525080519060200120306200047d620004b560201b60201c565b60001b604051602001620004969594939291906200072a565b6040516020818303038152906040528051906020012060048190555050565b6000804690508091505090565b828054620004d0906200088d565b90600052602060002090601f016020900481019282620004f4576000855562000540565b82601f106200050f57805160ff191683800117855562000540565b8280016001018555821562000540579182015b828111156200053f57825182559160200191906001019062000522565b5b5090506200054f919062000553565b5090565b5b808211156200056e57600081600090555060010162000554565b5090565b6000620005896200058384620007d2565b620007a9565b905082815260208101848484011115620005a257600080fd5b620005af84828562000857565b509392505050565b600081519050620005c88162000991565b92915050565b600082601f830112620005e057600080fd5b8151620005f284826020860162000572565b91505092915050565b600080600080600060a086880312156200061457600080fd5b60006200062488828901620005b7565b955050602086015167ffffffffffffffff8111156200064257600080fd5b6200065088828901620005ce565b945050604086015167ffffffffffffffff8111156200066e57600080fd5b6200067c88828901620005ce565b935050606086015167ffffffffffffffff8111156200069a57600080fd5b620006a888828901620005ce565b925050608086015167ffffffffffffffff811115620006c657600080fd5b620006d488828901620005ce565b9150509295509295909350565b620006ec8162000819565b82525050565b620006fd816200082d565b82525050565b600062000712600e8362000808565b91506200071f8262000968565b602082019050919050565b600060a082019050620007416000830188620006f2565b620007506020830187620006f2565b6200075f6040830186620006f2565b6200076e6060830185620006e1565b6200077d6080830184620006f2565b9695505050505050565b60006020820190508181036000830152620007a28162000703565b9050919050565b6000620007b5620007c8565b9050620007c38282620008c3565b919050565b6000604051905090565b600067ffffffffffffffff821115620007f057620007ef62000928565b5b620007fb8262000957565b9050602081019050919050565b600082825260208201905092915050565b6000620008268262000837565b9050919050565b6000819050919050565b600073ffffffffffffffffffffffffffffffffffffffff82169050919050565b60005b83811015620008775780820151818401526020810190506200085a565b8381111562000887576000848401525b50505050565b60006002820490506001821680620008a657607f821691505b60208210811415620008bd57620008bc620008f9565b5b50919050565b620008ce8262000957565b810181811067ffffffffffffffff82111715620008f057620008ef62000928565b5b80604052505050565b7f4e487b7100000000000000000000000000000000000000000000000000000000600052602260045260246000fd5b7f4e487b7100000000000000000000000000000000000000000000000000000000600052604160045260246000fd5b6000601f19601f8301169050919050565b7f616c726561647920696e69746564000000000000000000000000000000000000600082015250565b6200099c8162000819565b8114620009a857600080fd5b50565b615fd280620009bb6000396000f3fe6080604052600436106101f85760003560e01c80634f558e791161010d578063bd85b039116100a0578063d2b04fd61161006f578063d2b04fd61461073a578063e8a3d48514610777578063e985e9c5146107a2578063f242432a146107df578063f2fde38b14610808576101f8565b8063bd85b03914610680578063c00cdae9146106bd578063ce31cd56146106e6578063d0bbb0d71461070f576101f8565b80638da5cb5b116100dc5780638da5cb5b146105d8578063938e3d7b1461060357806395d89b411461062c578063a22cb46514610657576101f8565b80634f558e791461053257806351cff8d91461056f578063715018a6146105985780637adbaa02146105af576101f8565b8063235b6ea1116101905780632e24afb01161015f5780632e24afb01461044f5780632eb2c2d6146104785780633408e470146104a15780633adf80b4146104cc5780634e1273f4146104f5576101f8565b8063235b6ea11461038e5780632693ebf2146103b95780632d0335ab146103f65780632db1154414610433576101f8565b80630c53c51c116101cc5780630c53c51c146102cb5780630e89341c146102fb5780630f7e59701461033857806320379ee514610363576101f8565b8062fdd58e146101fd57806301ffc9a71461023a57806302fe53051461027757806306fdde03146102a0575b600080fd5b34801561020957600080fd5b50610224600480360381019061021f91906142fd565b610831565b60405161023191906151f9565b60405180910390f35b34801561024657600080fd5b50610261600480360381019061025c919061453c565b6108fa565b60405161026e9190614dd5565b60405180910390f35b34801561028357600080fd5b5061029e600480360381019061029991906145b7565b6109dc565b005b3480156102ac57600080fd5b506102b5610a64565b6040516102c29190614eb7565b60405180910390f35b6102e560048036038101906102e0919061426e565b610af2565b6040516102f29190614e95565b60405180910390f35b34801561030757600080fd5b50610322600480360381019061031d91906145f8565b610d64565b60405161032f9190614eb7565b60405180910390f35b34801561034457600080fd5b5061034d610f0e565b60405161035a9190614eb7565b60405180910390f35b34801561036f57600080fd5b50610378610f47565b6040516103859190614df0565b60405180910390f35b34801561039a57600080fd5b506103a3610f51565b6040516103b091906151f9565b60405180910390f35b3480156103c557600080fd5b506103e060048036038101906103db91906145f8565b610f57565b6040516103ed91906151f9565b60405180910390f35b34801561040257600080fd5b5061041d60048036038101906104189190613fd7565b610f6f565b60405161042a91906151f9565b60405180910390f35b61044d600480360381019061044891906145f8565b610fb8565b005b34801561045b57600080fd5b50610476600480360381019061047191906145f8565b611398565b005b34801561048457600080fd5b5061049f600480360381019061049a9190614065565b6114a5565b005b3480156104ad57600080fd5b506104b6611546565b6040516104c391906151f9565b60405180910390f35b3480156104d857600080fd5b506104f360048036038101906104ee9190614621565b611553565b005b34801561050157600080fd5b5061051c6004803603810190610517919061448f565b611633565b6040516105299190614d7c565b60405180910390f35b34801561053e57600080fd5b50610559600480360381019061055491906145f8565b6117e4565b6040516105669190614dd5565b60405180910390f35b34801561057b57600080fd5b5061059660048036038101906105919190614000565b6117f6565b005b3480156105a457600080fd5b506105ad611922565b005b3480156105bb57600080fd5b506105d660048036038101906105d191906144fb565b6119aa565b005b3480156105e457600080fd5b506105ed611a16565b6040516105fa9190614c61565b60405180910390f35b34801561060f57600080fd5b5061062a600480360381019061062591906145b7565b611a40565b005b34801561063857600080fd5b50610641611ad6565b60405161064e9190614eb7565b60405180910390f35b34801561066357600080fd5b5061067e60048036038101906106799190614232565b611b64565b005b34801561068c57600080fd5b506106a760048036038101906106a291906145f8565b611b7a565b6040516106b491906151f9565b60405180910390f35b3480156106c957600080fd5b506106e460048036038101906106df91906141b3565b611b97565b005b3480156106f257600080fd5b5061070d600480360381019061070891906143cc565b611d94565b005b34801561071b57600080fd5b50610724612152565b60405161073191906151f9565b60405180910390f35b34801561074657600080fd5b50610761600480360381019061075c9190614339565b612158565b60405161076e91906151f9565b60405180910390f35b34801561078357600080fd5b5061078c61230c565b6040516107999190614eb7565b60405180910390f35b3480156107ae57600080fd5b506107c960048036038101906107c49190614029565b61239e565b6040516107d69190614dd5565b60405180910390f35b3480156107eb57600080fd5b5061080660048036038101906108019190614124565b6124a0565b005b34801561081457600080fd5b5061082f600480360381019061082a9190613fd7565b612541565b005b60008073ffffffffffffffffffffffffffffffffffffffff168373ffffffffffffffffffffffffffffffffffffffff1614156108a2576040517f08c379a000000000000000000000000000000000000000000000000000000000815260040161089990614f19565b60405180910390fd5b60008083815260200190815260200160002060008473ffffffffffffffffffffffffffffffffffffffff1673ffffffffffffffffffffffffffffffffffffffff16815260200190815260200160002054905092915050565b60007fd9b67a26000000000000000000000000000000000000000000000000000000007bffffffffffffffffffffffffffffffffffffffffffffffffffffffff1916827bffffffffffffffffffffffffffffffffffffffffffffffffffffffff191614806109c557507f0e89341c000000000000000000000000000000000000000000000000000000007bffffffffffffffffffffffffffffffffffffffffffffffffffffffff1916827bffffffffffffffffffffffffffffffffffffffffffffffffffffffff1916145b806109d557506109d4826126ea565b5b9050919050565b6109e4612754565b73ffffffffffffffffffffffffffffffffffffffff16610a02611a16565b73ffffffffffffffffffffffffffffffffffffffff1614610a58576040517f08c379a0000000000000000000000000000000000000000000000000000000008152600401610a4f90615099565b60405180910390fd5b610a6181612763565b50565b600a8054610a71906155a4565b80601f0160208091040260200160405190810160405280929190818152602001828054610a9d906155a4565b8015610aea5780601f10610abf57610100808354040283529160200191610aea565b820191906000526020600020905b815481529060010190602001808311610acd57829003601f168201915b505050505081565b606060006040518060600160405280600560008a73ffffffffffffffffffffffffffffffffffffffff1673ffffffffffffffffffffffffffffffffffffffff1681526020019081526020016000205481526020018873ffffffffffffffffffffffffffffffffffffffff168152602001878152509050610b75878287878761277d565b610bb4576040517f08c379a0000000000000000000000000000000000000000000000000000000008152600401610bab906150b9565b60405180910390fd5b610c076001600560008a73ffffffffffffffffffffffffffffffffffffffff1673ffffffffffffffffffffffffffffffffffffffff1681526020019081526020016000205461288690919063ffffffff16565b600560008973ffffffffffffffffffffffffffffffffffffffff1673ffffffffffffffffffffffffffffffffffffffff168152602001908152602001600020819055507f5845892132946850460bff5a0083f71031bc5bf9aadcd40f1de79423eac9b10b873388604051610c7d93929190614c7c565b60405180910390a16000803073ffffffffffffffffffffffffffffffffffffffff16888a604051602001610cb2929190614bed565b604051602081830303815290604052604051610cce9190614bd6565b6000604051808303816000865af19150503d8060008114610d0b576040519150601f19603f3d011682016040523d82523d6000602084013e610d10565b606091505b509150915081610d55576040517f08c379a0000000000000000000000000000000000000000000000000000000008152600401610d4c90614f59565b60405180910390fd5b80935050505095945050505050565b6060610d6f8261289c565b610dae576040517f08c379a0000000000000000000000000000000000000000000000000000000008152600401610da590615039565b60405180910390fd5b6000600960008481526020019081526020016000208054610dce906155a4565b80601f0160208091040260200160405190810160405280929190818152602001828054610dfa906155a4565b8015610e475780601f10610e1c57610100808354040283529160200191610e47565b820191906000526020600020905b815481529060010190602001808311610e2a57829003601f168201915b50505050509050600081511115610efc57600960008481526020019081526020016000208054610e76906155a4565b80601f0160208091040260200160405190810160405280929190818152602001828054610ea2906155a4565b8015610eef5780601f10610ec457610100808354040283529160200191610eef565b820191906000526020600020905b815481529060010190602001808311610ed257829003601f168201915b5050505050915050610f09565b610f05836128bb565b9150505b919050565b6040518060400160405280600181526020017f310000000000000000000000000000000000000000000000000000000000000081525081565b6000600454905090565b600d5481565b60086020528060005260406000206000915090505481565b6000600560008373ffffffffffffffffffffffffffffffffffffffff1673ffffffffffffffffffffffffffffffffffffffff168152602001908152602001600020549050919050565b80600d54610fc69190615425565b3414611007576040517f08c379a0000000000000000000000000000000000000000000000000000000008152600401610ffe90614fb9565b60405180910390fd5b6000811161104a576040517f08c379a000000000000000000000000000000000000000000000000000000000815260040161104190614f79565b60405180910390fd5b6000611054612754565b905060018211156112c55760008267ffffffffffffffff8111156110a1577f4e487b7100000000000000000000000000000000000000000000000000000000600052604160045260246000fd5b6040519080825280602002602001820160405280156110cf5781602001602082028036833780820191505090505b50905060008367ffffffffffffffff811115611114577f4e487b7100000000000000000000000000000000000000000000000000000000600052604160045260246000fd5b6040519080825280602002602001820160405280156111425781602001602082028036833780820191505090505b50905060005b848110156112a257600061115a61294f565b90506000811161119f576040517f08c379a0000000000000000000000000000000000000000000000000000000008152600401611196906150f9565b60405180910390fd5b6111a88161289c565b156111e8576040517f08c379a00000000000000000000000000000000000000000000000000000000081526004016111df90615159565b60405180910390fd5b80848381518110611222577f4e487b7100000000000000000000000000000000000000000000000000000000600052603260045260246000fd5b6020026020010181815250506001838381518110611269577f4e487b7100000000000000000000000000000000000000000000000000000000600052603260045260246000fd5b6020026020010181815250506001600860008381526020019081526020016000208190555050808061129a90615607565b915050611148565b506112be83838360405180602001604052806000815250612960565b5050611394565b60006112cf61294f565b905060008111611314576040517f08c379a000000000000000000000000000000000000000000000000000000000815260040161130b906150f9565b60405180910390fd5b61131d8161289c565b1561135d576040517f08c379a000000000000000000000000000000000000000000000000000000000815260040161135490615159565b60405180910390fd5b6113798282600160405180602001604052806000815250612bca565b60016008600083815260200190815260200160002081905550505b5050565b6113a0612754565b73ffffffffffffffffffffffffffffffffffffffff166113be611a16565b73ffffffffffffffffffffffffffffffffffffffff1614611414576040517f08c379a000000000000000000000000000000000000000000000000000000000815260040161140b90615099565b60405180910390fd5b61141d8161289c565b61145c576040517f08c379a000000000000000000000000000000000000000000000000000000000815260040161145390615079565b60405180910390fd5b600061146782610d64565b9050817fa109ba539900bf1b633f956d63c96fc89b814c7287f7aa50a9216d0b55657207826040516114999190614eb7565b60405180910390a25050565b6114ad612754565b73ffffffffffffffffffffffffffffffffffffffff168573ffffffffffffffffffffffffffffffffffffffff1614806114f357506114f2856114ed612754565b61239e565b5b611532576040517f08c379a000000000000000000000000000000000000000000000000000000000815260040161152990615019565b60405180910390fd5b61153f8585858585612d60565b5050505050565b6000804690508091505090565b61155b612754565b73ffffffffffffffffffffffffffffffffffffffff16611579611a16565b73ffffffffffffffffffffffffffffffffffffffff16146115cf576040517f08c379a00000000000000000000000000000000000000000000000000000000081526004016115c690615099565b60405180910390fd5b806009600084815260200190815260200160002090805190602001906115f6929190613bcb565b50817f6bb7ff708619ba0610cba295a58592e0451dee2622938c8755667688daf3529b826040516116279190614eb7565b60405180910390a25050565b60608151835114611679576040517f08c379a000000000000000000000000000000000000000000000000000000000815260040161167090615199565b60405180910390fd5b6000835167ffffffffffffffff8111156116bc577f4e487b7100000000000000000000000000000000000000000000000000000000600052604160045260246000fd5b6040519080825280602002602001820160405280156116ea5781602001602082028036833780820191505090505b50905060005b84518110156117d957611783858281518110611735577f4e487b7100000000000000000000000000000000000000000000000000000000600052603260045260246000fd5b6020026020010151858381518110611776577f4e487b7100000000000000000000000000000000000000000000000000000000600052603260045260246000fd5b6020026020010151610831565b8282815181106117bc577f4e487b7100000000000000000000000000000000000000000000000000000000600052603260045260246000fd5b602002602001018181525050806117d290615607565b90506116f0565b508091505092915050565b60006117ef8261289c565b9050919050565b6117fe612754565b73ffffffffffffffffffffffffffffffffffffffff1661181c611a16565b73ffffffffffffffffffffffffffffffffffffffff1614611872576040517f08c379a000000000000000000000000000000000000000000000000000000000815260040161186990615099565b60405180910390fd5b60008173ffffffffffffffffffffffffffffffffffffffff164760405161189890614c4c565b60006040518083038185875af1925050503d80600081146118d5576040519150601f19603f3d011682016040523d82523d6000602084013e6118da565b606091505b505090508061191e576040517f08c379a0000000000000000000000000000000000000000000000000000000008152600401611915906150d9565b60405180910390fd5b5050565b61192a612754565b73ffffffffffffffffffffffffffffffffffffffff16611948611a16565b73ffffffffffffffffffffffffffffffffffffffff161461199e576040517f08c379a000000000000000000000000000000000000000000000000000000000815260040161199590615099565b60405180910390fd5b6119a860006130c0565b565b60005b8151811015611a12576119ff8282815181106119f2577f4e487b7100000000000000000000000000000000000000000000000000000000600052603260045260246000fd5b6020026020010151611398565b8080611a0a90615607565b9150506119ad565b5050565b6000600660009054906101000a900473ffffffffffffffffffffffffffffffffffffffff16905090565b611a48612754565b73ffffffffffffffffffffffffffffffffffffffff16611a66611a16565b73ffffffffffffffffffffffffffffffffffffffff1614611abc576040517f08c379a0000000000000000000000000000000000000000000000000000000008152600401611ab390615099565b60405180910390fd5b80600c9080519060200190611ad2929190613bcb565b5050565b600b8054611ae3906155a4565b80601f0160208091040260200160405190810160405280929190818152602001828054611b0f906155a4565b8015611b5c5780601f10611b3157610100808354040283529160200191611b5c565b820191906000526020600020905b815481529060010190602001808311611b3f57829003601f168201915b505050505081565b611b76611b6f612754565b8383613186565b5050565b600060086000838152602001908152602001600020549050919050565b60005b8251811015611d8e576000838281518110611bde577f4e487b7100000000000000000000000000000000000000000000000000000000600052603260045260246000fd5b602002602001015190506000838381518110611c23577f4e487b7100000000000000000000000000000000000000000000000000000000600052603260045260246000fd5b602002602001015190506000815167ffffffffffffffff811115611c70577f4e487b7100000000000000000000000000000000000000000000000000000000600052604160045260246000fd5b604051908082528060200260200182016040528015611c9e5781602001602082028036833780820191505090505b50905060005b8251811015611d55576000611cf989858481518110611cec577f4e487b7100000000000000000000000000000000000000000000000000000000600052603260045260246000fd5b6020026020010151610831565b905080838381518110611d35577f4e487b7100000000000000000000000000000000000000000000000000000000600052603260045260246000fd5b602002602001018181525050508080611d4d90615607565b915050611ca4565b506000604051806020016040528060008152509050611d7788858585856114a5565b505050508080611d8690615607565b915050611b9a565b50505050565b611d9c612754565b73ffffffffffffffffffffffffffffffffffffffff16611dba611a16565b73ffffffffffffffffffffffffffffffffffffffff1614611e10576040517f08c379a0000000000000000000000000000000000000000000000000000000008152600401611e0790615099565b60405180910390fd5b8251845114611e54576040517f08c379a0000000000000000000000000000000000000000000000000000000008152600401611e4b90615119565b60405180910390fd5b60005b845181101561214b576000858281518110611e9b577f4e487b7100000000000000000000000000000000000000000000000000000000600052603260045260246000fd5b602002602001015190506000858381518110611ee0577f4e487b7100000000000000000000000000000000000000000000000000000000600052603260045260246000fd5b602002602001015190506000815167ffffffffffffffff811115611f2d577f4e487b7100000000000000000000000000000000000000000000000000000000600052604160045260246000fd5b604051908082528060200260200182016040528015611f5b5781602001602082028036833780820191505090505b50905060005b8251811015612128576000838281518110611fa5577f4e487b7100000000000000000000000000000000000000000000000000000000600052603260045260246000fd5b60200260200101519050611fb88161289c565b15611ff8576040517f08c379a0000000000000000000000000000000000000000000000000000000008152600401611fef90615159565b60405180910390fd5b60008111801561200a57506127108111155b612049576040517f08c379a000000000000000000000000000000000000000000000000000000000815260040161204090615139565b60405180910390fd5b60016008600083815260200190815260200160002081905550600183838151811061209d577f4e487b7100000000000000000000000000000000000000000000000000000000600052603260045260246000fd5b60200260200101818152505060008851111561211457876009600083815260200190815260200160002090805190602001906120da929190613bcb565b50807f6bb7ff708619ba0610cba295a58592e0451dee2622938c8755667688daf3529b8960405161210b9190614eb7565b60405180910390a25b50808061212090615607565b915050611f61565b5061213583838388612960565b505050808061214390615607565b915050611e57565b5050505050565b61271081565b6000612162612754565b73ffffffffffffffffffffffffffffffffffffffff16612180611a16565b73ffffffffffffffffffffffffffffffffffffffff16146121d6576040517f08c379a00000000000000000000000000000000000000000000000000000000081526004016121cd90615099565b60405180910390fd5b6121df8461289c565b1561221f576040517f08c379a000000000000000000000000000000000000000000000000000000000815260040161221690615159565b60405180910390fd5b60008411801561223157506127108411155b612270576040517f08c379a000000000000000000000000000000000000000000000000000000000815260040161226790615139565b60405180910390fd5b6000835111156122db57826009600086815260200190815260200160002090805190602001906122a1929190613bcb565b50837f6bb7ff708619ba0610cba295a58592e0451dee2622938c8755667688daf3529b846040516122d29190614eb7565b60405180910390a25b6122e88585600185612bca565b60016008600086815260200190815260200160002081905550839050949350505050565b6060600c805461231b906155a4565b80601f0160208091040260200160405190810160405280929190818152602001828054612347906155a4565b80156123945780601f1061236957610100808354040283529160200191612394565b820191906000526020600020905b81548152906001019060200180831161237757829003601f168201915b5050505050905090565b600080600760009054906101000a900473ffffffffffffffffffffffffffffffffffffffff1690508273ffffffffffffffffffffffffffffffffffffffff168173ffffffffffffffffffffffffffffffffffffffff1663c4552791866040518263ffffffff1660e01b81526004016124169190614c61565b60206040518083038186803b15801561242e57600080fd5b505afa158015612442573d6000803e3d6000fd5b505050506040513d601f19601f82011682018060405250810190612466919061458e565b73ffffffffffffffffffffffffffffffffffffffff16141561248c57600191505061249a565b61249684846132f3565b9150505b92915050565b6124a8612754565b73ffffffffffffffffffffffffffffffffffffffff168573ffffffffffffffffffffffffffffffffffffffff1614806124ee57506124ed856124e8612754565b61239e565b5b61252d576040517f08c379a000000000000000000000000000000000000000000000000000000000815260040161252490614f99565b60405180910390fd5b61253a8585858585613387565b5050505050565b612549612754565b73ffffffffffffffffffffffffffffffffffffffff16612567611a16565b73ffffffffffffffffffffffffffffffffffffffff16146125bd576040517f08c379a00000000000000000000000000000000000000000000000000000000081526004016125b490615099565b60405180910390fd5b600073ffffffffffffffffffffffffffffffffffffffff168173ffffffffffffffffffffffffffffffffffffffff16141561262d576040517f08c379a000000000000000000000000000000000000000000000000000000000815260040161262490614f39565b60405180910390fd5b612636816130c0565b50565b60003073ffffffffffffffffffffffffffffffffffffffff163373ffffffffffffffffffffffffffffffffffffffff1614156126e357600080368080601f016020809104026020016040519081016040528093929190818152602001838380828437600081840152601f19601f820116905080830192505050505050509050600080369050905073ffffffffffffffffffffffffffffffffffffffff8183015116925050506126e7565b3390505b90565b60007f01ffc9a7000000000000000000000000000000000000000000000000000000007bffffffffffffffffffffffffffffffffffffffffffffffffffffffff1916827bffffffffffffffffffffffffffffffffffffffffffffffffffffffff1916149050919050565b600061275e612639565b905090565b8060029080519060200190612779929190613bcb565b5050565b60008073ffffffffffffffffffffffffffffffffffffffff168673ffffffffffffffffffffffffffffffffffffffff1614156127ee576040517f08c379a00000000000000000000000000000000000000000000000000000000081526004016127e590614fd9565b60405180910390fd5b60016128016127fc87613609565b613671565b838686604051600081526020016040526040516128219493929190614e50565b6020604051602081039080840390855afa158015612843573d6000803e3d6000fd5b5050506020604051035173ffffffffffffffffffffffffffffffffffffffff168673ffffffffffffffffffffffffffffffffffffffff1614905095945050505050565b6000818361289491906153cf565b905092915050565b6000806008600084815260200190815260200160002054119050919050565b6060600280546128ca906155a4565b80601f01602080910402602001604051908101604052809291908181526020018280546128f6906155a4565b80156129435780601f1061291857610100808354040283529160200191612943565b820191906000526020600020905b81548152906001019060200180831161292657829003601f168201915b50505050509050919050565b600061295b60006136aa565b905090565b600073ffffffffffffffffffffffffffffffffffffffff168473ffffffffffffffffffffffffffffffffffffffff1614156129d0576040517f08c379a00000000000000000000000000000000000000000000000000000000081526004016129c7906151d9565b60405180910390fd5b8151835114612a14576040517f08c379a0000000000000000000000000000000000000000000000000000000008152600401612a0b906151b9565b60405180910390fd5b6000612a1e612754565b9050612a2f8160008787878761371c565b60005b8451811015612b3457838181518110612a74577f4e487b7100000000000000000000000000000000000000000000000000000000600052603260045260246000fd5b6020026020010151600080878481518110612ab8577f4e487b7100000000000000000000000000000000000000000000000000000000600052603260045260246000fd5b6020026020010151815260200190815260200160002060008873ffffffffffffffffffffffffffffffffffffffff1673ffffffffffffffffffffffffffffffffffffffff1681526020019081526020016000206000828254612b1a91906153cf565b925050819055508080612b2c90615607565b915050612a32565b508473ffffffffffffffffffffffffffffffffffffffff16600073ffffffffffffffffffffffffffffffffffffffff168273ffffffffffffffffffffffffffffffffffffffff167f4a39dc06d4c0dbc64b70af90fd698a233a518aa5d07e595d983b8c0526c8f7fb8787604051612bac929190614d9e565b60405180910390a4612bc381600087878787613724565b5050505050565b600073ffffffffffffffffffffffffffffffffffffffff168473ffffffffffffffffffffffffffffffffffffffff161415612c3a576040517f08c379a0000000000000000000000000000000000000000000000000000000008152600401612c31906151d9565b60405180910390fd5b6000612c44612754565b9050612c6581600087612c568861390b565b612c5f8861390b565b8761371c565b8260008086815260200190815260200160002060008773ffffffffffffffffffffffffffffffffffffffff1673ffffffffffffffffffffffffffffffffffffffff1681526020019081526020016000206000828254612cc491906153cf565b925050819055508473ffffffffffffffffffffffffffffffffffffffff16600073ffffffffffffffffffffffffffffffffffffffff168273ffffffffffffffffffffffffffffffffffffffff167fc3d58168c5ae7397731d063d5bbf3d657854427343f4c083240f7aacaa2d0f628787604051612d42929190615214565b60405180910390a4612d59816000878787876139d1565b5050505050565b8151835114612da4576040517f08c379a0000000000000000000000000000000000000000000000000000000008152600401612d9b906151b9565b60405180910390fd5b600073ffffffffffffffffffffffffffffffffffffffff168473ffffffffffffffffffffffffffffffffffffffff161415612e14576040517f08c379a0000000000000000000000000000000000000000000000000000000008152600401612e0b90614ff9565b60405180910390fd5b6000612e1e612754565b9050612e2e81878787878761371c565b60005b845181101561302b576000858281518110612e75577f4e487b7100000000000000000000000000000000000000000000000000000000600052603260045260246000fd5b602002602001015190506000858381518110612eba577f4e487b7100000000000000000000000000000000000000000000000000000000600052603260045260246000fd5b60200260200101519050600080600084815260200190815260200160002060008b73ffffffffffffffffffffffffffffffffffffffff1673ffffffffffffffffffffffffffffffffffffffff16815260200190815260200160002054905081811015612f5b576040517f08c379a0000000000000000000000000000000000000000000000000000000008152600401612f5290615059565b60405180910390fd5b81810360008085815260200190815260200160002060008c73ffffffffffffffffffffffffffffffffffffffff1673ffffffffffffffffffffffffffffffffffffffff168152602001908152602001600020819055508160008085815260200190815260200160002060008b73ffffffffffffffffffffffffffffffffffffffff1673ffffffffffffffffffffffffffffffffffffffff168152602001908152602001600020600082825461301091906153cf565b925050819055505050508061302490615607565b9050612e31565b508473ffffffffffffffffffffffffffffffffffffffff168673ffffffffffffffffffffffffffffffffffffffff168273ffffffffffffffffffffffffffffffffffffffff167f4a39dc06d4c0dbc64b70af90fd698a233a518aa5d07e595d983b8c0526c8f7fb87876040516130a2929190614d9e565b60405180910390a46130b8818787878787613724565b505050505050565b6000600660009054906101000a900473ffffffffffffffffffffffffffffffffffffffff16905081600660006101000a81548173ffffffffffffffffffffffffffffffffffffffff021916908373ffffffffffffffffffffffffffffffffffffffff1602179055508173ffffffffffffffffffffffffffffffffffffffff168173ffffffffffffffffffffffffffffffffffffffff167f8be0079c531659141344cd1fd0a4f28419497f9722a3daafe3b4186f6b6457e060405160405180910390a35050565b8173ffffffffffffffffffffffffffffffffffffffff168373ffffffffffffffffffffffffffffffffffffffff1614156131f5576040517f08c379a00000000000000000000000000000000000000000000000000000000081526004016131ec90615179565b60405180910390fd5b80600160008573ffffffffffffffffffffffffffffffffffffffff1673ffffffffffffffffffffffffffffffffffffffff16815260200190815260200160002060008473ffffffffffffffffffffffffffffffffffffffff1673ffffffffffffffffffffffffffffffffffffffff16815260200190815260200160002060006101000a81548160ff0219169083151502179055508173ffffffffffffffffffffffffffffffffffffffff168373ffffffffffffffffffffffffffffffffffffffff167f17307eab39ab6107e8899845ad3d59bd9653f200f220920489ca2b5937696c31836040516132e69190614dd5565b60405180910390a3505050565b6000600160008473ffffffffffffffffffffffffffffffffffffffff1673ffffffffffffffffffffffffffffffffffffffff16815260200190815260200160002060008373ffffffffffffffffffffffffffffffffffffffff1673ffffffffffffffffffffffffffffffffffffffff16815260200190815260200160002060009054906101000a900460ff16905092915050565b600073ffffffffffffffffffffffffffffffffffffffff168473ffffffffffffffffffffffffffffffffffffffff1614156133f7576040517f08c379a00000000000000000000000000000000000000000000000000000000081526004016133ee90614ff9565b60405180910390fd5b6000613401612754565b90506134218187876134128861390b565b61341b8861390b565b8761371c565b600080600086815260200190815260200160002060008873ffffffffffffffffffffffffffffffffffffffff1673ffffffffffffffffffffffffffffffffffffffff168152602001908152602001600020549050838110156134b8576040517f08c379a00000000000000000000000000000000000000000000000000000000081526004016134af90615059565b60405180910390fd5b83810360008087815260200190815260200160002060008973ffffffffffffffffffffffffffffffffffffffff1673ffffffffffffffffffffffffffffffffffffffff168152602001908152602001600020819055508360008087815260200190815260200160002060008873ffffffffffffffffffffffffffffffffffffffff1673ffffffffffffffffffffffffffffffffffffffff168152602001908152602001600020600082825461356d91906153cf565b925050819055508573ffffffffffffffffffffffffffffffffffffffff168773ffffffffffffffffffffffffffffffffffffffff168373ffffffffffffffffffffffffffffffffffffffff167fc3d58168c5ae7397731d063d5bbf3d657854427343f4c083240f7aacaa2d0f6288886040516135ea929190615214565b60405180910390a46136008288888888886139d1565b50505050505050565b6000604051806080016040528060438152602001615f5a6043913980519060200120826000015183602001518460400151805190602001206040516020016136549493929190614e0b565b604051602081830303815290604052805190602001209050919050565b600061367b610f47565b8260405160200161368d929190614c15565b604051602081830303815290604052805190602001209050919050565b6000806000600190505b6127108111613712576000600860008381526020019081526020016000205414156136ff5760008411156136f6576001846136ef919061547f565b93506136fe565b809150613712565b5b808061370a90615607565b9150506136b4565b5080915050919050565b505050505050565b6137438473ffffffffffffffffffffffffffffffffffffffff16613bb8565b15613903578373ffffffffffffffffffffffffffffffffffffffff1663bc197c8187878686866040518663ffffffff1660e01b8152600401613789959493929190614cba565b602060405180830381600087803b1580156137a357600080fd5b505af19250505080156137d457506040513d601f19601f820116820180604052508101906137d19190614565565b60015b61387a576137e061570b565b806308c379a0141561383d57506137f5615e0b565b80613800575061383f565b806040517f08c379a00000000000000000000000000000000000000000000000000000000081526004016138349190614eb7565b60405180910390fd5b505b6040517f08c379a000000000000000000000000000000000000000000000000000000000815260040161387190614ed9565b60405180910390fd5b63bc197c8160e01b7bffffffffffffffffffffffffffffffffffffffffffffffffffffffff1916817bffffffffffffffffffffffffffffffffffffffffffffffffffffffff191614613901576040517f08c379a00000000000000000000000000000000000000000000000000000000081526004016138f890614ef9565b60405180910390fd5b505b505050505050565b60606000600167ffffffffffffffff811115613950577f4e487b7100000000000000000000000000000000000000000000000000000000600052604160045260246000fd5b60405190808252806020026020018201604052801561397e5781602001602082028036833780820191505090505b50905082816000815181106139bc577f4e487b7100000000000000000000000000000000000000000000000000000000600052603260045260246000fd5b60200260200101818152505080915050919050565b6139f08473ffffffffffffffffffffffffffffffffffffffff16613bb8565b15613bb0578373ffffffffffffffffffffffffffffffffffffffff1663f23a6e6187878686866040518663ffffffff1660e01b8152600401613a36959493929190614d22565b602060405180830381600087803b158015613a5057600080fd5b505af1925050508015613a8157506040513d601f19601f82011682018060405250810190613a7e9190614565565b60015b613b2757613a8d61570b565b806308c379a01415613aea5750613aa2615e0b565b80613aad5750613aec565b806040517f08c379a0000000000000000000000000000000000000000000000000000000008152600401613ae19190614eb7565b60405180910390fd5b505b6040517f08c379a0000000000000000000000000000000000000000000000000000000008152600401613b1e90614ed9565b60405180910390fd5b63f23a6e6160e01b7bffffffffffffffffffffffffffffffffffffffffffffffffffffffff1916817bffffffffffffffffffffffffffffffffffffffffffffffffffffffff191614613bae576040517f08c379a0000000000000000000000000000000000000000000000000000000008152600401613ba590614ef9565b60405180910390fd5b505b505050505050565b600080823b905060008111915050919050565b828054613bd7906155a4565b90600052602060002090601f016020900481019282613bf95760008555613c40565b82601f10613c1257805160ff1916838001178555613c40565b82800160010185558215613c40579182015b82811115613c3f578251825591602001919060010190613c24565b5b509050613c4d9190613c51565b5090565b5b80821115613c6a576000816000905550600101613c52565b5090565b6000613c81613c7c84615262565b61523d565b90508083825260208201905082856020860282011115613ca057600080fd5b60005b85811015613cd05781613cb68882613e48565b845260208401935060208301925050600181019050613ca3565b5050509392505050565b6000613ced613ce88461528e565b61523d565b90508083825260208201905082856020860282011115613d0c57600080fd5b60005b85811015613d5657813567ffffffffffffffff811115613d2e57600080fd5b808601613d3b8982613ec6565b85526020850194506020840193505050600181019050613d0f565b5050509392505050565b6000613d73613d6e846152ba565b61523d565b90508083825260208201905082856020860282011115613d9257600080fd5b60005b85811015613dc25781613da88882613fad565b845260208401935060208301925050600181019050613d95565b5050509392505050565b6000613ddf613dda846152e6565b61523d565b905082815260208101848484011115613df757600080fd5b613e02848285615562565b509392505050565b6000613e1d613e1884615317565b61523d565b905082815260208101848484011115613e3557600080fd5b613e40848285615562565b509392505050565b600081359050613e5781615ea1565b92915050565b600081359050613e6c81615eb8565b92915050565b600082601f830112613e8357600080fd5b8135613e93848260208601613c6e565b91505092915050565b600082601f830112613ead57600080fd5b8135613ebd848260208601613cda565b91505092915050565b600082601f830112613ed757600080fd5b8135613ee7848260208601613d60565b91505092915050565b600081359050613eff81615ecf565b92915050565b600081359050613f1481615ee6565b92915050565b600081359050613f2981615efd565b92915050565b600081519050613f3e81615efd565b92915050565b600082601f830112613f5557600080fd5b8135613f65848260208601613dcc565b91505092915050565b600081519050613f7d81615f14565b92915050565b600082601f830112613f9457600080fd5b8135613fa4848260208601613e0a565b91505092915050565b600081359050613fbc81615f2b565b92915050565b600081359050613fd181615f42565b92915050565b600060208284031215613fe957600080fd5b6000613ff784828501613e48565b91505092915050565b60006020828403121561401257600080fd5b600061402084828501613e5d565b91505092915050565b6000806040838503121561403c57600080fd5b600061404a85828601613e48565b925050602061405b85828601613e48565b9150509250929050565b600080600080600060a0868803121561407d57600080fd5b600061408b88828901613e48565b955050602061409c88828901613e48565b945050604086013567ffffffffffffffff8111156140b957600080fd5b6140c588828901613ec6565b935050606086013567ffffffffffffffff8111156140e257600080fd5b6140ee88828901613ec6565b925050608086013567ffffffffffffffff81111561410b57600080fd5b61411788828901613f44565b9150509295509295909350565b600080600080600060a0868803121561413c57600080fd5b600061414a88828901613e48565b955050602061415b88828901613e48565b945050604061416c88828901613fad565b935050606061417d88828901613fad565b925050608086013567ffffffffffffffff81111561419a57600080fd5b6141a688828901613f44565b9150509295509295909350565b6000806000606084860312156141c857600080fd5b60006141d686828701613e48565b935050602084013567ffffffffffffffff8111156141f357600080fd5b6141ff86828701613e72565b925050604084013567ffffffffffffffff81111561421c57600080fd5b61422886828701613e9c565b9150509250925092565b6000806040838503121561424557600080fd5b600061425385828601613e48565b925050602061426485828601613ef0565b9150509250929050565b600080600080600060a0868803121561428657600080fd5b600061429488828901613e48565b955050602086013567ffffffffffffffff8111156142b157600080fd5b6142bd88828901613f44565b94505060406142ce88828901613f05565b93505060606142df88828901613f05565b92505060806142f088828901613fc2565b9150509295509295909350565b6000806040838503121561431057600080fd5b600061431e85828601613e48565b925050602061432f85828601613fad565b9150509250929050565b6000806000806080858703121561434f57600080fd5b600061435d87828801613e48565b945050602061436e87828801613fad565b935050604085013567ffffffffffffffff81111561438b57600080fd5b61439787828801613f83565b925050606085013567ffffffffffffffff8111156143b457600080fd5b6143c087828801613f44565b91505092959194509250565b600080600080608085870312156143e257600080fd5b600085013567ffffffffffffffff8111156143fc57600080fd5b61440887828801613e72565b945050602085013567ffffffffffffffff81111561442557600080fd5b61443187828801613e9c565b935050604085013567ffffffffffffffff81111561444e57600080fd5b61445a87828801613f83565b925050606085013567ffffffffffffffff81111561447757600080fd5b61448387828801613f44565b91505092959194509250565b600080604083850312156144a257600080fd5b600083013567ffffffffffffffff8111156144bc57600080fd5b6144c885828601613e72565b925050602083013567ffffffffffffffff8111156144e557600080fd5b6144f185828601613ec6565b9150509250929050565b60006020828403121561450d57600080fd5b600082013567ffffffffffffffff81111561452757600080fd5b61453384828501613ec6565b91505092915050565b60006020828403121561454e57600080fd5b600061455c84828501613f1a565b91505092915050565b60006020828403121561457757600080fd5b600061458584828501613f2f565b91505092915050565b6000602082840312156145a057600080fd5b60006145ae84828501613f6e565b91505092915050565b6000602082840312156145c957600080fd5b600082013567ffffffffffffffff8111156145e357600080fd5b6145ef84828501613f83565b91505092915050565b60006020828403121561460a57600080fd5b600061461884828501613fad565b91505092915050565b6000806040838503121561463457600080fd5b600061464285828601613fad565b925050602083013567ffffffffffffffff81111561465f57600080fd5b61466b85828601613f83565b9150509250929050565b60006146818383614ba9565b60208301905092915050565b614696816154c5565b82525050565b6146a5816154b3565b82525050565b6146bc6146b7826154b3565b615650565b82525050565b60006146cd82615358565b6146d78185615386565b93506146e283615348565b8060005b838110156147135781516146fa8882614675565b975061470583615379565b9250506001810190506146e6565b5085935050505092915050565b614729816154d7565b82525050565b614738816154e3565b82525050565b61474f61474a826154e3565b615662565b82525050565b600061476082615363565b61476a8185615397565b935061477a818560208601615571565b6147838161572d565b840191505092915050565b600061479982615363565b6147a381856153a8565b93506147b3818560208601615571565b80840191505092915050565b60006147ca8261536e565b6147d481856153b3565b93506147e4818560208601615571565b6147ed8161572d565b840191505092915050565b60006148056034836153b3565b915061481082615758565b604082019050919050565b60006148286028836153b3565b9150614833826157a7565b604082019050919050565b600061484b602b836153b3565b9150614856826157f6565b604082019050919050565b600061486e6026836153b3565b915061487982615845565b604082019050919050565b6000614891601c836153b3565b915061489c82615894565b602082019050919050565b60006148b46027836153b3565b91506148bf826158bd565b604082019050919050565b60006148d76002836153c4565b91506148e28261590c565b600282019050919050565b60006148fa6029836153b3565b915061490582615935565b604082019050919050565b600061491d6012836153b3565b915061492882615984565b602082019050919050565b60006149406025836153b3565b915061494b826159ad565b604082019050919050565b60006149636025836153b3565b915061496e826159fc565b604082019050919050565b60006149866032836153b3565b915061499182615a4b565b604082019050919050565b60006149a96026836153b3565b91506149b482615a9a565b604082019050919050565b60006149cc602a836153b3565b91506149d782615ae9565b604082019050919050565b60006149ef6017836153b3565b91506149fa82615b38565b602082019050919050565b6000614a126020836153b3565b9150614a1d82615b61565b602082019050919050565b6000614a356021836153b3565b9150614a4082615b8a565b604082019050919050565b6000614a586018836153b3565b9150614a6382615bd9565b602082019050919050565b6000614a7b600e836153b3565b9150614a8682615c02565b602082019050919050565b6000614a9e6000836153a8565b9150614aa982615c2b565b600082019050919050565b6000614ac16032836153b3565b9150614acc82615c2e565b604082019050919050565b6000614ae46016836153b3565b9150614aef82615c7d565b602082019050919050565b6000614b076017836153b3565b9150614b1282615ca6565b602082019050919050565b6000614b2a6029836153b3565b9150614b3582615ccf565b604082019050919050565b6000614b4d6029836153b3565b9150614b5882615d1e565b604082019050919050565b6000614b706028836153b3565b9150614b7b82615d6d565b604082019050919050565b6000614b936021836153b3565b9150614b9e82615dbc565b604082019050919050565b614bb28161554b565b82525050565b614bc18161554b565b82525050565b614bd081615555565b82525050565b6000614be2828461478e565b915081905092915050565b6000614bf9828561478e565b9150614c0582846146ab565b6014820191508190509392505050565b6000614c20826148ca565b9150614c2c828561473e565b602082019150614c3c828461473e565b6020820191508190509392505050565b6000614c5782614a91565b9150819050919050565b6000602082019050614c76600083018461469c565b92915050565b6000606082019050614c91600083018661469c565b614c9e602083018561468d565b8181036040830152614cb08184614755565b9050949350505050565b600060a082019050614ccf600083018861469c565b614cdc602083018761469c565b8181036040830152614cee81866146c2565b90508181036060830152614d0281856146c2565b90508181036080830152614d168184614755565b90509695505050505050565b600060a082019050614d37600083018861469c565b614d44602083018761469c565b614d516040830186614bb8565b614d5e6060830185614bb8565b8181036080830152614d708184614755565b90509695505050505050565b60006020820190508181036000830152614d9681846146c2565b905092915050565b60006040820190508181036000830152614db881856146c2565b90508181036020830152614dcc81846146c2565b90509392505050565b6000602082019050614dea6000830184614720565b92915050565b6000602082019050614e05600083018461472f565b92915050565b6000608082019050614e20600083018761472f565b614e2d6020830186614bb8565b614e3a604083018561469c565b614e47606083018461472f565b95945050505050565b6000608082019050614e65600083018761472f565b614e726020830186614bc7565b614e7f604083018561472f565b614e8c606083018461472f565b95945050505050565b60006020820190508181036000830152614eaf8184614755565b905092915050565b60006020820190508181036000830152614ed181846147bf565b905092915050565b60006020820190508181036000830152614ef2816147f8565b9050919050565b60006020820190508181036000830152614f128161481b565b9050919050565b60006020820190508181036000830152614f328161483e565b9050919050565b60006020820190508181036000830152614f5281614861565b9050919050565b60006020820190508181036000830152614f7281614884565b9050919050565b60006020820190508181036000830152614f92816148a7565b9050919050565b60006020820190508181036000830152614fb2816148ed565b9050919050565b60006020820190508181036000830152614fd281614910565b9050919050565b60006020820190508181036000830152614ff281614933565b9050919050565b6000602082019050818103600083015261501281614956565b9050919050565b6000602082019050818103600083015261503281614979565b9050919050565b600060208201905081810360008301526150528161499c565b9050919050565b60006020820190508181036000830152615072816149bf565b9050919050565b60006020820190508181036000830152615092816149e2565b9050919050565b600060208201905081810360008301526150b281614a05565b9050919050565b600060208201905081810360008301526150d281614a28565b9050919050565b600060208201905081810360008301526150f281614a4b565b9050919050565b6000602082019050818103600083015261511281614a6e565b9050919050565b6000602082019050818103600083015261513281614ab4565b9050919050565b6000602082019050818103600083015261515281614ad7565b9050919050565b6000602082019050818103600083015261517281614afa565b9050919050565b6000602082019050818103600083015261519281614b1d565b9050919050565b600060208201905081810360008301526151b281614b40565b9050919050565b600060208201905081810360008301526151d281614b63565b9050919050565b600060208201905081810360008301526151f281614b86565b9050919050565b600060208201905061520e6000830184614bb8565b92915050565b60006040820190506152296000830185614bb8565b6152366020830184614bb8565b9392505050565b6000615247615258565b905061525382826155d6565b919050565b6000604051905090565b600067ffffffffffffffff82111561527d5761527c6156dc565b5b602082029050602081019050919050565b600067ffffffffffffffff8211156152a9576152a86156dc565b5b602082029050602081019050919050565b600067ffffffffffffffff8211156152d5576152d46156dc565b5b602082029050602081019050919050565b600067ffffffffffffffff821115615301576153006156dc565b5b61530a8261572d565b9050602081019050919050565b600067ffffffffffffffff821115615332576153316156dc565b5b61533b8261572d565b9050602081019050919050565b6000819050602082019050919050565b600081519050919050565b600081519050919050565b600081519050919050565b6000602082019050919050565b600082825260208201905092915050565b600082825260208201905092915050565b600081905092915050565b600082825260208201905092915050565b600081905092915050565b60006153da8261554b565b91506153e58361554b565b9250827fffffffffffffffffffffffffffffffffffffffffffffffffffffffffffffffff0382111561541a5761541961567e565b5b828201905092915050565b60006154308261554b565b915061543b8361554b565b9250817fffffffffffffffffffffffffffffffffffffffffffffffffffffffffffffffff04831182151516156154745761547361567e565b5b828202905092915050565b600061548a8261554b565b91506154958361554b565b9250828210156154a8576154a761567e565b5b828203905092915050565b60006154be8261552b565b9050919050565b60006154d08261552b565b9050919050565b60008115159050919050565b6000819050919050565b60007fffffffff0000000000000000000000000000000000000000000000000000000082169050919050565b6000615524826154b3565b9050919050565b600073ffffffffffffffffffffffffffffffffffffffff82169050919050565b6000819050919050565b600060ff82169050919050565b82818337600083830152505050565b60005b8381101561558f578082015181840152602081019050615574565b8381111561559e576000848401525b50505050565b600060028204905060018216806155bc57607f821691505b602082108114156155d0576155cf6156ad565b5b50919050565b6155df8261572d565b810181811067ffffffffffffffff821117156155fe576155fd6156dc565b5b80604052505050565b60006156128261554b565b91507fffffffffffffffffffffffffffffffffffffffffffffffffffffffffffffffff8214156156455761564461567e565b5b600182019050919050565b600061565b8261566c565b9050919050565b6000819050919050565b60006156778261573e565b9050919050565b7f4e487b7100000000000000000000000000000000000000000000000000000000600052601160045260246000fd5b7f4e487b7100000000000000000000000000000000000000000000000000000000600052602260045260246000fd5b7f4e487b7100000000000000000000000000000000000000000000000000000000600052604160045260246000fd5b600060033d111561572a5760046000803e61572760005161574b565b90505b90565b6000601f19601f8301169050919050565b60008160601b9050919050565b60008160e01c9050919050565b7f455243313135353a207472616e7366657220746f206e6f6e204552433131353560008201527f526563656976657220696d706c656d656e746572000000000000000000000000602082015250565b7f455243313135353a204552433131353552656365697665722072656a6563746560008201527f6420746f6b656e73000000000000000000000000000000000000000000000000602082015250565b7f455243313135353a2062616c616e636520717565727920666f7220746865207a60008201527f65726f2061646472657373000000000000000000000000000000000000000000602082015250565b7f4f776e61626c653a206e6577206f776e657220697320746865207a65726f206160008201527f6464726573730000000000000000000000000000000000000000000000000000602082015250565b7f46756e6374696f6e2063616c6c206e6f74207375636365737366756c00000000600082015250565b7f4e46543a206d696e7420616d6f756e74206d757374206265206772656174657260008201527f207468616e203000000000000000000000000000000000000000000000000000602082015250565b7f1901000000000000000000000000000000000000000000000000000000000000600082015250565b7f455243313135353a2063616c6c6572206973206e6f74206f776e6572206e6f7260008201527f20617070726f7665640000000000000000000000000000000000000000000000602082015250565b7f4e46543a20696e76616c69642076616c75650000000000000000000000000000600082015250565b7f4e61746976654d6574615472616e73616374696f6e3a20494e56414c49445f5360008201527f49474e4552000000000000000000000000000000000000000000000000000000602082015250565b7f455243313135353a207472616e7366657220746f20746865207a65726f20616460008201527f6472657373000000000000000000000000000000000000000000000000000000602082015250565b7f455243313135353a207472616e736665722063616c6c6572206973206e6f742060008201527f6f776e6572206e6f7220617070726f7665640000000000000000000000000000602082015250565b7f455243313135355472616461626c65237572693a204e4f4e4558495354454e5460008201527f5f544f4b454e0000000000000000000000000000000000000000000000000000602082015250565b7f455243313135353a20696e73756666696369656e742062616c616e636520666f60008201527f72207472616e7366657200000000000000000000000000000000000000000000602082015250565b7f746f6b656e20696420646f6573206e6f74206578697374000000000000000000600082015250565b7f4f776e61626c653a2063616c6c6572206973206e6f7420746865206f776e6572600082015250565b7f5369676e657220616e64207369676e617475726520646f206e6f74206d61746360008201527f6800000000000000000000000000000000000000000000000000000000000000602082015250565b7f4661696c656420746f2077697468647261772045746865720000000000000000600082015250565b7f6e6f206d6f726520746f6b656e73000000000000000000000000000000000000600082015250565b50565b7f4e46543a20696e697469616c4f776e65727320616e64206964735065724f776e60008201527f6572206c656e677468206d69736d617463680000000000000000000000000000602082015250565b7f746f6b656e206964206f7574206f6620626f756e647300000000000000000000600082015250565b7f746f6b656e20696420616c726561647920657869737473000000000000000000600082015250565b7f455243313135353a2073657474696e6720617070726f76616c2073746174757360008201527f20666f722073656c660000000000000000000000000000000000000000000000602082015250565b7f455243313135353a206163636f756e747320616e6420696473206c656e67746860008201527f206d69736d617463680000000000000000000000000000000000000000000000602082015250565b7f455243313135353a2069647320616e6420616d6f756e7473206c656e6774682060008201527f6d69736d61746368000000000000000000000000000000000000000000000000602082015250565b7f455243313135353a206d696e7420746f20746865207a65726f2061646472657360008201527f7300000000000000000000000000000000000000000000000000000000000000602082015250565b600060443d1015615e1b57615e9e565b615e23615258565b60043d036004823e80513d602482011167ffffffffffffffff82111715615e4b575050615e9e565b808201805167ffffffffffffffff811115615e695750505050615e9e565b80602083010160043d038501811115615e86575050505050615e9e565b615e95826020018501866155d6565b82955050505050505b90565b615eaa816154b3565b8114615eb557600080fd5b50565b615ec1816154c5565b8114615ecc57600080fd5b50565b615ed8816154d7565b8114615ee357600080fd5b50565b615eef816154e3565b8114615efa57600080fd5b50565b615f06816154ed565b8114615f1157600080fd5b50565b615f1d81615519565b8114615f2857600080fd5b50565b615f348161554b565b8114615f3f57600080fd5b50565b615f4b81615555565b8114615f5657600080fd5b5056fe4d6574615472616e73616374696f6e2875696e74323536206e6f6e63652c616464726573732066726f6d2c62797465732066756e6374696f6e5369676e617475726529a2646970667358221220f6a3529b1f2498e6f1273bcbb2050f85bf476b575ebfb4fac10380645c82571364736f6c63430008040033454950373132446f6d61696e28737472696e67206e616d652c737472696e672076657273696f6e2c6164647265737320766572696679696e67436f6e74726163742c627974657333322073616c7429",
  "devdoc": {
    "kind": "dev",
    "methods": {
      "balanceOf(address,uint256)": {
        "details": "See {IERC1155-balanceOf}. Requirements: - `account` cannot be the zero address."
      },
      "balanceOfBatch(address[],uint256[])": {
        "details": "See {IERC1155-balanceOfBatch}. Requirements: - `accounts` and `ids` must have the same length."
      },
      "batchMint(address[],uint256[][],string,bytes)": {
        "details": "Mint new tokens for each id in _ids",
        "params": {
          "data": "Data to pass if receiver is contract",
          "idsPerOwner": "2d Array of ids to mint for each owner. Required to be the same length as initialOwners.",
          "initialOwners": "The addresses to mint tokens to",
          "uri": "The Custom URI to set against each newly created Token"
        }
      },
      "mint(address,uint256,string,bytes)": {
        "details": "Mint a new token type and assigns _initialSupply to an address",
        "params": {
          "data": "Data to pass if receiver is contract",
          "id": "The id of the token to create (must not currenty exist).",
          "initialOwner": "address of the first owner of the token",
          "uri": "Optional URI for this token type"
        },
        "returns": {
          "_0": "The newly created token ID"
        }
      },
      "owner()": {
        "details": "Returns the address of the current owner."
      },
      "publicMint(uint256)": {
        "details": "Publicly accessible: Mint new tokens to the contract caller based on the amount of value sent. Each token value is hard coded"
      },
      "renounceOwnership()": {
        "details": "Leaves the contract without owner. It will not be possible to call `onlyOwner` functions anymore. Can only be called by the current owner. NOTE: Renouncing ownership will leave the contract without an owner, thereby removing any functionality that is only available to the owner."
      },
      "safeBatchTransferFrom(address,address,uint256[],uint256[],bytes)": {
        "details": "See {IERC1155-safeBatchTransferFrom}."
      },
      "safeTransferFrom(address,address,uint256,uint256,bytes)": {
        "details": "See {IERC1155-safeTransferFrom}."
      },
      "setApprovalForAll(address,bool)": {
        "details": "See {IERC1155-setApprovalForAll}."
      },
      "setCustomURI(uint256,string)": {
        "details": "Will update the base URI for the token",
        "params": {
          "_newURI": "New URI for the token.",
          "_tokenId": "The token to update. _msgSender() must be its creator."
        }
      },
      "setURI(string)": {
        "details": "Sets a new URI for all token types, by relying on the token type ID substitution mechanism https://eips.ethereum.org/EIPS/eip-1155#metadata[defined in the EIP].",
        "params": {
          "_newURI": "New URI for all tokens"
        }
      },
      "supportsInterface(bytes4)": {
        "details": "See {IERC165-supportsInterface}."
      },
      "totalSupply(uint256)": {
        "details": "Returns the total quantity for a token ID",
        "params": {
          "_id": "uint256 ID of the token to query"
        },
        "returns": {
          "_0": "amount of token in existence"
        }
      },
      "transferOwnership(address)": {
        "details": "Transfers ownership of the contract to a new account (`newOwner`). Can only be called by the current owner."
      },
      "withdraw(address)": {
        "details": "Withdraw funds used to publicly mint tokens"
      }
    },
    "title": "NFT NFT - a contract for non-fungible tokens using ERC 1155 for batch actions",
    "version": 1
  },
  "userdoc": {
    "kind": "user",
    "methods": {
      "batchMakePermanent(uint256[])": {
        "notice": "Mark all tokens permanent in batch"
      },
      "batchTransferToMany(address,address[],uint256[][])": {
        "notice": "Allows contract owner to mass transfer to many recipients in a single transaction"
      },
      "isApprovedForAll(address,address)": {
        "notice": "Override isApprovedForAll to whitelist user's OpenSea proxy accounts to enable gas-free listings."
      },
      "makePermanent(uint256)": {
        "notice": "Mark a single token as permanent in batch"
      }
    },
    "version": 1
  },
  "storageLayout": {
    "storage": [
      {
        "astId": 130,
        "contract": "contracts/NFT.sol:NFT",
        "label": "_balances",
        "offset": 0,
        "slot": "0",
        "type": "t_mapping(t_uint256,t_mapping(t_address,t_uint256))"
      },
      {
        "astId": 136,
        "contract": "contracts/NFT.sol:NFT",
        "label": "_operatorApprovals",
        "offset": 0,
        "slot": "1",
        "type": "t_mapping(t_address,t_mapping(t_address,t_bool))"
      },
      {
        "astId": 138,
        "contract": "contracts/NFT.sol:NFT",
        "label": "_uri",
        "offset": 0,
        "slot": "2",
        "type": "t_string_storage"
      },
      {
        "astId": 3313,
        "contract": "contracts/NFT.sol:NFT",
        "label": "inited",
        "offset": 0,
        "slot": "3",
        "type": "t_bool"
      },
      {
        "astId": 3220,
        "contract": "contracts/NFT.sol:NFT",
        "label": "domainSeperator",
        "offset": 0,
        "slot": "4",
        "type": "t_bytes32"
      },
      {
        "astId": 3359,
        "contract": "contracts/NFT.sol:NFT",
        "label": "nonces",
        "offset": 0,
        "slot": "5",
        "type": "t_mapping(t_address,t_uint256)"
      },
      {
        "astId": 7,
        "contract": "contracts/NFT.sol:NFT",
        "label": "_owner",
        "offset": 0,
        "slot": "6",
        "type": "t_address"
      },
      {
        "astId": 2280,
        "contract": "contracts/NFT.sol:NFT",
        "label": "proxyRegistryAddress",
        "offset": 0,
        "slot": "7",
        "type": "t_address"
      },
      {
        "astId": 2284,
        "contract": "contracts/NFT.sol:NFT",
        "label": "tokenSupply",
        "offset": 0,
        "slot": "8",
        "type": "t_mapping(t_uint256,t_uint256)"
      },
      {
        "astId": 2288,
        "contract": "contracts/NFT.sol:NFT",
        "label": "customUri",
        "offset": 0,
        "slot": "9",
        "type": "t_mapping(t_uint256,t_string_storage)"
      },
      {
        "astId": 2290,
        "contract": "contracts/NFT.sol:NFT",
        "label": "name",
        "offset": 0,
        "slot": "10",
        "type": "t_string_storage"
      },
      {
        "astId": 2292,
        "contract": "contracts/NFT.sol:NFT",
        "label": "symbol",
        "offset": 0,
        "slot": "11",
        "type": "t_string_storage"
      },
      {
        "astId": 2498,
        "contract": "contracts/NFT.sol:NFT",
        "label": "_contractURI",
        "offset": 0,
        "slot": "12",
        "type": "t_string_storage"
      },
      {
        "astId": 2501,
        "contract": "contracts/NFT.sol:NFT",
        "label": "_price",
        "offset": 0,
        "slot": "13",
        "type": "t_uint256"
      }
    ],
    "types": {
      "t_address": {
        "encoding": "inplace",
        "label": "address",
        "numberOfBytes": "20"
      },
      "t_bool": {
        "encoding": "inplace",
        "label": "bool",
        "numberOfBytes": "1"
      },
      "t_bytes32": {
        "encoding": "inplace",
        "label": "bytes32",
        "numberOfBytes": "32"
      },
      "t_mapping(t_address,t_bool)": {
        "encoding": "mapping",
        "key": "t_address",
        "label": "mapping(address => bool)",
        "numberOfBytes": "32",
        "value": "t_bool"
      },
      "t_mapping(t_address,t_mapping(t_address,t_bool))": {
        "encoding": "mapping",
        "key": "t_address",
        "label": "mapping(address => mapping(address => bool))",
        "numberOfBytes": "32",
        "value": "t_mapping(t_address,t_bool)"
      },
      "t_mapping(t_address,t_uint256)": {
        "encoding": "mapping",
        "key": "t_address",
        "label": "mapping(address => uint256)",
        "numberOfBytes": "32",
        "value": "t_uint256"
      },
      "t_mapping(t_uint256,t_mapping(t_address,t_uint256))": {
        "encoding": "mapping",
        "key": "t_uint256",
        "label": "mapping(uint256 => mapping(address => uint256))",
        "numberOfBytes": "32",
        "value": "t_mapping(t_address,t_uint256)"
      },
      "t_mapping(t_uint256,t_string_storage)": {
        "encoding": "mapping",
        "key": "t_uint256",
        "label": "mapping(uint256 => string)",
        "numberOfBytes": "32",
        "value": "t_string_storage"
      },
      "t_mapping(t_uint256,t_uint256)": {
        "encoding": "mapping",
        "key": "t_uint256",
        "label": "mapping(uint256 => uint256)",
        "numberOfBytes": "32",
        "value": "t_uint256"
      },
      "t_string_storage": {
        "encoding": "bytes",
        "label": "string",
        "numberOfBytes": "32"
      },
      "t_uint256": {
        "encoding": "inplace",
        "label": "uint256",
        "numberOfBytes": "32"
      }
    }
  }
}